:020000040800F2
:10000000F81F0020990100082F2C00080524000883
:100010002D2C0008810C0008713000080000000041
:1000200000000000000000000000000001010008C6
:10003000830C00080000000045010008A92D0008FD
:10004000B3010008B3010008B3010008B3010008C0
:10005000B3010008B3010008B3010008B3010008B0
:10006000B3010008B3010008B3010008B3010008A0
:10007000B3010008B3010008B3010008B301000890
:10008000B3010008B3010008B3010008B301000880
:10009000B3010008B3010008B3010008850C000893
:1000A000B30100083D2E0008B3010008B3010008A9
:1000B000492E0008B3010008552E0008B3010008BE
:1000C000B3010008B3010008B3010008B301000840
:1000D000B3010008B3010008B3010008B301000830
:1000E000B3010008B3010008B3010008DFF80CD029
:1000F00000F0E0FC00480047E74F0008F81F002030
:10010000224B19680868B0E8F00F80F30988BFF344
:100110006F8F4FF0000080F311884EF00D0E704786
:100120000000000006480068006880F3088862B696
:1001300061B6BFF34F8FBFF36F8F00DF00BF00BF0B
:1001400008ED00E0EFF30980BFF36F8F0F4B1A68E3
:1001500020E9F00F106008B54FF0500080F31188CF
:10016000BFF34F8FBFF36F8F06F084FD4FF0000099
:1001700080F31188BDE8084019680868B0E8F00FFE
:1001800080F30988BFF36F8F704700BF78000020AD
:10019000EFF3058070470000064880470648004797
:1001A000FEE7FEE7FEE7FEE7FEE7FEE7FEE7FEE727
:1001B000FEE7FEE73B2E0008ED0000082DE9F041C8
:1001C0000024061B254671F1000605DA01240027EC
:1001D000D0EB070067EB0101161E73F1000605DA8C
:1001E0000027D2EB0702012567EB030300F034FB85
:1001F00086460E4617469C46AC4204D00025D0EBFE
:10020000050E65EB010624B10020D2EB000760EB80
:10021000030C704631463A466346BDE8F081202A19
:1002200004DB203A21FA02F00021704721FA02F3A0
:10023000D040C2F12002914008431946704740EA7D
:1002400001039B0703D009E008C9121F08C0042A54
:10025000FAD203E011F8013B00F8013B521EF9D23B
:100260007047D2B201E000F8012B491EFBD2704763
:100270000022F6E710B513460A4604461946FFF772
:10028000F0FF204610BD30B504460020034600E0D4
:100290005B1C934203D2E05CCD5C401BF8D030BDC8
:1002A000F0B480EA0102D40F4200B2EB410F02D257
:1002B0000246084611464A0042D0C30DDDB2C1F3E2
:1002C000C752AD1A202D35DAC1F3160141F40002F0
:1002D00004B15242C5F1200602FA06F12A41104447
:1002E000B3EBD05F23D0C4B1012DA0EBC35009DC28
:1002F000F0BC4FF0004202EAC352DBB200F500004E
:1003000000F005BB400000F1807000EBC350A0F18D
:10031000807040EAD170490009E0490841EAC071A3
:10032000A0EBC35000F50000400800EBC350F0BC48
:1003300000F0E4BA6142012202EB4101001BF6E742
:10034000F0BC704781F00041AAE780F00040A7E7C9
:1003500080EA010210B502F00043400022D04A00BA
:100360001FD0010E01EB1261C0F35600C2F356021A
:1003700040F4000042F40002A0FB022000047F3998
:10038000140400D0401C50EA124001D44000491E21
:10039000C2B20C0604EBD010401C4008802A02D0E8
:1003A00003E0002010BD20F00100002900DA002049
:1003B000184310BD30B480EA010202F0004530F06D
:1003C000004221F0004013D090B1C30DD40DC2F310
:1003D0001601C0F31600E41A41F4000140F40002D3
:1003E0007D34914201D3641C00E04900002C02DA04
:1003F00030BC002070474FF400000023914201D32D
:10040000891A034340084FEA4101F7D151B19142A3
:1004100002D14FF0004105E002D24FF0010101E0AE
:100420006FF0010103EBC450284430BC00F066BA01
:10043000420005D0C0F3C7525242914201DC002075
:10044000704700EBC15070472DE9FE4F804681EAAE
:100450000300C00F0C46009021F0004123F000453E
:10046000B8EB0200A94105D24046214690461C4601
:100470000B46024623F00040104347D0270DC7F338
:100480000A00C3F30A510290401A019040286BDA27
:10049000C3F3130040F4801B0098924620B1002360
:1004A000D2EB030A63EB0B0B01985946C0F14002F3
:1004B000504600F002FA06460D4650465946019A4B
:1004C00000F00AFA10EB08006141002487EA11529B
:1004D00084EAE7731A4340D0009A62B3019A012A72
:1004E0004FEA075215DC001B61EB02014FF000429E
:1004F00002EA0752CDE90042001C41F58011324664
:100500002B4600F041FA03B0BDE8F08F404621468B
:10051000F9E7001B61EB0201001C41F58013001894
:100520005B412018A2F5001747EB030140EAD570A4
:10053000B6196D4111E06D084FEA360645EAC075FF
:100540004FEA0752001B61EB0201001C41F58011CC
:1005500049084FEA30000019514132462B4603B09A
:10056000BDE8F04F00F001BA0098012240000023DE
:10057000D0EB020263EBE073009821464FEAE0748F
:10058000B8EB000061EB0401E9E783F000435BE7AF
:1005900081F0004158E72DE9FE4F81EA030404F0A1
:1005A000004421F0004100944FF0000B23F0004381
:1005B00050EA01045ED052EA03045BD0C3F30A544C
:1005C000C1F30A552C44A4F2F3340194A0FB025465
:1005D000C1F3130141F48011C3F3130343F48013F7
:1005E00001FB024400FB034E840A970A44EA81544B
:1005F00047EA8357A4FB076802958D0A05FB078528
:100600004FEA932C04FB0C542705029D4FEA065831
:1006100047EA1637B5EB08056EEB070C870E920E0E
:1006200047EA811742EA8312A7FB0201B6EB0B01EE
:1006300064EB00042B0D43EA0C335E1844EB1C50B2
:10064000DA465146E7FB0201C5F313044FEA0B33C8
:1006500043EA14534FEA0432019C43EA0603A4F12F
:100660000C040294009CCDE900B400F08DF903B0B5
:10067000BDE8F08F00200146F9E72DE9F04D81EA51
:10068000030404F0004B21F0004514464FF0000A2B
:1006900023F0004150EA050220D054EA01021DD0A7
:1006A000C5F30A570246C5F31303C1F31300C1F3A0
:1006B0000A5640F4801543F48013A7EB0608101B7C
:1006C000D64608F2FD3873EB050002D308F10108A5
:1006D00001E092185B41B8F1000F03DA00200146F7
:1006E000BDE8F08D00204FF48011064684460EE0F0
:1006F000171B73EB050705D3121B63EB05030643BA
:100700004CEA010C49084FEA300092185B4150EA6C
:100710000107EDD152EA030012D082EA040083EA15
:100720000501084305D0101BAB4106D2012200236E
:1007300006E000224FF0004302E06FF00102531088
:100740001AEB06004CEB085110EB0A0041EB0B01D1
:10075000BDE8F04D00F009B9C10F80EAE07008442F
:10076000CA079623002100F0D2B896230022114632
:1007700000F0CDB800F0004220F00040C10DC0F301
:10078000160040F400007F2901DA00207047962906
:1007900003DCC1F19601C84001E096398840002A87
:1007A000F4D04042704720F00040C10DC0F3160065
:1007B00040F400007F2901DA00207047962903DC0D
:1007C000C1F19601C840704796398840704700F0E3
:1007D000004230F000400AD0C10D01F56071C0F355
:1007E000160042EA0151C208400711437047002039
:1007F0000146704701F0004330B421F0004150EA57
:10080000010206D00A0DA2F56072C1F31301002A9D
:1008100002DC30BC00207047440F44EAC104C10030
:10082000E01830BC00EBC25000F068B830B50B46A1
:10083000014600202022012409E021FA02F59D4210
:1008400005D303FA02F5491B04FA02F52844151EE4
:10085000A2F10102F1DC30BD2DE9F05F0546002078
:1008600092469B4688460646814640241BE0284621
:10087000414647462246FFF7D2FC53465A46C01A25
:10088000914110D311461846224600F016F82D1A51
:1008900067EB01084F4622460120002100F00DF8C9
:1008A00017EB00094E41201EA4F10104DFDC48468D
:1008B00031462A464346BDE8F09F202A04DB203A11
:1008C00000FA02F1002070479140C2F1200320FAA3
:1008D00003F3194390407047202A06DBCB17203AD8
:1008E00041FA02F043EAE07306E041FA02F3D04035
:1008F000C2F1200291400843194670470029A8BF61
:100900007047401C490008BF20F00100704710B438
:10091000B0FA80FC00FA0CF050EA010404BF10BCED
:10092000704749B1CCF1200421FA04F411FA0CF11A
:1009300018BF012121430843A3EB0C01CB1D4FEA53
:1009400000614FEA102042BF002010BC704700EB4E
:10095000C35010440029A4BF10BC7047401C49007C
:1009600008BF20F0010010BC704710B5141E73F1D1
:10097000000408DA401C41F1000192185B411A435F
:1009800001D120F0010010BD2DE9F04D92469B46AB
:1009900011B1B1FA81F202E0B0FA80F22032904651
:1009A000FFF78BFF04460F4640EA0A0041EA0B01BD
:1009B00053465A46084313D0114653EA010019D052
:1009C000C8F140025046FFF72AFC05460E46504645
:1009D00059464246FFF771FF084305D0012004E065
:1009E00020463946BDE8F08D0020054346EAE07612
:1009F0002C4337430A986305E40AA0EB0800002261
:100A0000FD0A44EA47540A3002D500200146E9E7CE
:100A1000010510196941DDE9084500196941BDE882
:100A2000F04DA2E770B521F0004303430CD0C1F3B1
:100A30000A550024D5EB040564EB0403D617AD1A60
:100A4000B34102DB0020014670BD201841EB02518A
:100A500070BDC1F30A52C1F3130140F2FF3341F4F8
:100A600080119A4202DA00200146704740F2334377
:100A70009A42A2F2334202DC5242FFF7D0BBFFF7A8
:100A80001CBF000030B5041E71F1000404DB4FF000
:100A90000044404264EB0101141E73F1000405DBC5
:100AA0001C464FF00043524263EB0403994208BFD7
:100AB000904230BD064C074D06E0E06840F001036F
:100AC00094E8070098471034AC42F6D3FFF712FBC6
:100AD00038840008588400082DE9F04D00231A4698
:100AE0001B1A8A4103DB00200146BDE8F08DC1F3EB
:100AF0000A52C1F3130141F480154FF0000BD107E6
:100B000002D100186D41521E0027044640F2FF1129
:100B1000384601EB620A3E468046024600204FF40A
:100B20008011FFF77CFBC2197141BB1846EB010035
:100B3000B4EB030C75EB000C04D3E41A65EB000571
:100B400017460E46241908F101006D4180463428ED
:100B5000E3DDF91946EB0600091BA84103D24FF06B
:100B6000FF32134601E0002213461BEB070046EB61
:100B70000A51BDE8F04DFFF7F8BE000070B504461D
:100B800000688168C943C90717D1816821F0010154
:100B9000816000F0E1FA05460AE000BF00F0DCFAEF
:100BA000401B022804D920688068C043C00706D0D3
:100BB00020688068C043C007F0D0002070BDA06AE4
:100BC00040F01000A062E06A40F00100E062012005
:100BD00070BD00002DE9F05F274F8A461546834619
:100BE000DFF88880224EDFF88C907968FFF7AAFB47
:100BF00004465046B968FFF7A5FBC7E901BA24F0DF
:100C000000431E49434506DA20F00043434502DA1B
:100C1000002004460DE08C4201D90C4602E0B442AB
:100C200000DD3446884201D9084602E0B04200DDCA
:100C300030464E464946FFF78BFBFFF79BFD40428F
:100C400047B231462046FFF783FBFFF793FD404252
:100C5000391D40B2082900D80027011D082900D8F5
:100C600000206F70A870BDE8F09F0000CDCC4C3F15
:100C7000000070410000204100000020000070C111
:100C8000FEE7704710B5202000F060F9402000F02A
:100C90005DF9BDE81040802000F058B972B6FEE75B
:100CA000F8B50024009490F824202546012A12D09B
:100CB000012280F824204A681F23072A0DD20668E3
:100CC000776B521E02EB820293409F430B68934066
:100CD0001F43776319E00220F8BD06680D2A0AD287
:100CE000376BD21F02EB820293409F430B68934005
:100CF0001F43376309E0F76A0D3A02EB8202934023
:100D00009F430B6893401F43F7620A6807230668F6
:100D10000A2A0AD3F7680A3A02EB420293409F4339
:100D20008B6893401F43F76008E0376902EB42028B
:100D300093409F438B6893401F4337610A68102A92
:100D400001D0112A20D1124B02689A4217D1936820
:100D50001B0219D4936843F40003936009681029B7
:100D600012D10C490C4A0968B1FBF2F101EB810187
:100D7000490000E0491E00910029FBD104E0816A8E
:100D800041F020018162012480F824502046F8BD02
:100D9000002401403000002040420F002DE9F041C6
:100DA0004FF0000704003D467ED0A06A002628B917
:100DB000E66284F82460204600F07EF82046FFF7C3
:100DC000DDFEA16AC90600D420B1A06A40F010007F
:100DD000A06269E0A16A21F4885141F00201A16298
:100DE0006268E169237B0A4347EA43010A43A16839
:100DF0004FF48077B94209D0012907D05FF0000194
:100E000094F814C0BCF1010F02D00AE03946F7E7AC
:100E1000F3B1A36A43F02003A362E36A43F0010342
:100E2000E3622368D3F804C02CF4694C4CEA010C4B
:100E3000C3F804C021688B68DFF870C003EA0C03B4
:100E400013438B60A168B9420BD0012909D00CE093
:100E5000DFF85CC0A3690CEB43330B4343F4006140
:100E6000DFE7218A0D05A5F580152168CB6A23F4FB
:100E700070032B43CB62216889680E4B1940914265
:100E800008D1E662A16A21F0020141F00101A162EC
:100E9000BDE8F081A06A20F0020040F01000A062DE
:100EA000E06A40F00100E0620120F1E7FDF7E1FFB8
:100EB00000E0FFFFFE0E1FFF00B585B0002100918E
:100EC00001910291039100680E49884218D10E48A1
:100ED000816941F400718161816901F400710491BB
:100EE000816941F0040181618069694600F0040074
:100EF00004900120009003200190044800F032F893
:100F000005B000BD0024014000100240000801406F
:100F100070B5044600F020F90546601C02D0044874
:100F20000078044400F018F9401BA042FAD370BDC9
:100F300024000020402803D0802801D0202802D19E
:100F4000014800F0A9BF7047A8010020044910B56E
:100F50000A68024202D00860FFF7ECFF10BD0000F3
:100F6000140401402DE9F84FDFF8B8910024A9F1ED
:100F7000040B23460F2709F1040AABF1040EC9E064
:100F80000125A5402A40AA427DD1674ED1F804C070
:100F9000ACEB0608B44532D014DCBCF1030F3AD0F8
:100FA00009DCBCF1000F2AD0BCF1010F1CD0BCF150
:100FB000020F31D11DE0BCF1110F17D0BCF1120F9F
:100FC0002AD119E0B8F5881F19D006DCB8F5803FA2
:100FD00015D0B8F5801F1FD111E0B8F5001F0ED055
:100FE000B8F5041F18D10AE0CB6815E0CB681B1DCB
:100FF00012E0CB6808330FE0CB680C330CE08B6851
:101000002BB1012B4FF0080303D0456104E004230A
:1010100002E0056100E00023FF2A01D8064601E056
:1010200000F104064FEA840501D9A5F12005D6F8A0
:10103000008007FA05FC28EA0C0803FA05F548EADF
:101040000508C6F800804D68ED0062D5374DAE69E1
:1010500046F00106AE61AD6924F0030605F0010516
:101060000095334D06EB050CDCF80850A607360F4B
:1010700007FA06F825EA0805DFF8B880404503D1ED
:101080004FF0000817E044E0DFF8AC80404502D1A3
:101090004FF001080FE0DFF8A480404502D14FF087
:1010A000020808E0DFF89880404502D14FF00308BD
:1010B00001E04FF0040808FA06F848EA0508CCF801
:1010C00008804D68D9F80060ED024D4601D5164301
:1010D00000E096432E604D68DAF80060AD02554698
:1010E00001D5164300E096432E604D68DBF80060A2
:1010F000AD035D4601D5164300E096432E604D6872
:10110000DEF80060ED03754601D5164300E0964316
:101110002E60641C0D682A46E5407FF431AFBDE8BF
:10112000F88F000008040140000011100010024078
:101130000000014000080140000C01400010014087
:10114000001401408068084000D0012070470AB1B7
:10115000016170470904FBE701488068704700009F
:1011600024000020024881680278114481607047A1
:1011700024000020074810B5016841F0100101600B
:10118000032000F0A1F80F2000F006F800F04AF864
:10119000002010BD0020024030B505461C4887B035
:1011A000816941F400618161806906A900F40060F1
:1011B000009001A800F0A6F900F0D4F91549164AEC
:1011C000B0FBF1F11548491E0260416040F2E73280
:1011D0000021C0E903218160816100F0FFFD04006E
:1011E00012D10E4800F058FE04000DD1192000F075
:1011F0003DF8102D07D200222946192000F044F8AE
:101200000748056000E0012407B0204630BD00001B
:101210000010024040420F00002C0140C802002094
:10122000280000200F4808B5816941F00101816163
:10123000816901F001010091C16941F08051C161F2
:10124000C069002200F0805000900F21901E00F035
:101250001BF80548416821F0E06141F000714160F0
:1012600008BD00000010024000000140002809DB1A
:1012700000F01F02012191404009800000F1E020B0
:10128000C0F8001170470000F0B40E4B1B680C460C
:10129000C3F30223C3F10705042D00D90425191D4A
:1012A000072901D2002300E0DB1E012606FA05F122
:1012B000491E214099409E40761E16403143F0BCA5
:1012C00001F03EBF0CED00E0064900F0070208689F
:1012D0004FF6FF03184040EA0220034A104308601B
:1012E000704700000CED00E00000FA052DE9F8431E
:1012F00005460078354CC00754D0E0690026C00090
:1013000008D4E06940F08050E061E069012600F017
:10131000805000902E480168C90512D401688046AB
:1013200041F480710160FFF717FF074605E000BF39
:10133000FFF712FFC01B642823D8D8F80000C005AF
:10134000F6D5206A10F4407021D0A98801F44071CC
:1013500081421CD0206A1F49012220F440700A609B
:1013600000220A602062C00711D0FFF7F5FE074691
:1013700041F2883808E000BFFFF7EEFEC11B41458F
:1013800002D90320BDE8F883206A8007F4D5206ADB
:10139000696820F44070084320621EB1E06920F0C3
:1013A0008050E0612878800705D56068A96820F43E
:1013B0004040084360602878C00605D56068E96849
:1013C00020F48000084360600020DBE7001002404A
:1013D00000700040400442422DE9F0470F460500EE
:1013E00061D0434E306800F00700B84209D230683F
:1013F00020F0070038433060306800F00700B84242
:1014000051D128683B4C810712D5400703D560684D
:1014100040F4E06060602878000703D5606840F41D
:10142000605060606068A96820F0F0000843606068
:101430002878C00728D06868012810D021680228C1
:1014400010D0890700292EDA616821F003010143D9
:101450006160FFF781FE804641F288390DE0216826
:101460008903EFE78901EDE7FFF776FEA0EB0801BE
:10147000494502D90320BDE8F0876068696800F03B
:101480000C00B0EB810FEFD1306800F00700B842DC
:101490000BD9306820F0070038433060306800F026
:1014A0000700B84201D00120E5E72878400705D5BC
:1014B0006068E96820F4E06008436060287800070D
:1014C00006D56068296920F4605040EAC100606078
:1014D00000F058F86168084AC1F30311515CC84034
:1014E0000649086006480068FFF756FE0020C2E77C
:1014F00000200240001002409676000830000020D4
:10150000280000200F2202600C4A536803F00303F6
:101510004360536803F0F0038360536803F4E063AF
:10152000C36052684FF4E06303EAD20202610448E8
:10153000006800F0070008607047000000100240DB
:10154000002002400448054900684968044AC1F384
:101550000221515CC840704730000020001002405A
:10156000A67600080448054900684968044AC1F3A2
:10157000C221515CC840704730000020001002407A
:10158000A67600080E4A51680E4801F00C03042BA1
:1015900011D0082B0FD10C48C1F38343C903C05CA1
:1015A0000AD55168084AC1F34041921E515C054A70
:1015B0005043B0FBF1F070470449484370470000C6
:1015C0000010024000127A008676000800093D00F3
:1015D0002DE9F84F040070D02078C04DC00749D0E5
:1015E0006868C0F38100012807D06868C0F38100F3
:1015F000022809D16868C00306D52868800339D558
:1016000060680028E7D035E06068B0F5803F0BD017
:1016100010B1B0F5A02F11D0286820F480302860D8
:10162000286820F4802002E0286840F48030286098
:10163000606890B1FFF790FD06460AE0286840F424
:1016400080202860F0E700BFFFF786FD801B64283C
:1016500073D828688003F7D50CE0FFF77DFD0646B8
:1016600005E000BFFFF778FD801B6428F0D82868EC
:101670008003F7D420789A4E80074FF001094FF08D
:10168000000839D5686810F00C0F07D06868C0F3FF
:101690008100022809D16868C00306D42868800741
:1016A00014D52069012808D110E02069B0B1C6F82E
:1016B0000090FFF751FD074605E00AE1FFF74CFDFA
:1016C000C01B0228C4D828688007F7D5286861693C
:1016D00020F0F80040EAC10028600DE0C6F8008064
:1016E000FFF73AFD074604E0FFF736FDC01B02286E
:1016F00023D828688007F7D4207800072CD57948AC
:10170000A169D9B1C0F80090FFF726FD074604E0B3
:10171000FFF722FDC01B02280FD8686A8007F7D5A3
:1017200071484FF4FA510068B0FBF1F0009000BF2F
:101730000098411E0091FAD20EE080E0C0F80080CF
:10174000FFF70AFD074604E0FFF706FDC01B02286D
:1017500075D8686A8007F7D42078400760D5E869B3
:101760000027C00008D4E86940F08050E861E869CB
:10177000012700F0805000905C480168C90513D42F
:101780000168834641F480710160FFF7E5FC824601
:1017900006E000BFFFF7E0FCA0EB0A0064284ED88B
:1017A000DBF80000C005F5D5E06801280AD008B1D3
:1017B000052813D0286A20F001002862286A20F04A
:1017C000040002E0286A40F001002862E06841F26B
:1017D000883B98B1FFF7C0FC82460BE0286A40F0D6
:1017E00004002862EEE700BFFFF7B6FCA0EB0A0199
:1017F00059455AD8286A8007F6D50CE0FFF7ACFCAB
:10180000824605E0FFF7A8FCA0EB0A0159454CD839
:10181000286A8007F6D41FB1E86920F08050E8619B
:10182000E06988B36968C1F38101022944D00228C4
:10183000C6F8608004D0FFF78FFC044638E034E03F
:10184000FFF78AFC074604E0FFF786FCC01B02286E
:101850002BD828688001F7D4206AB0F5803F05D1E5
:101860006868A16820F4003008436860D4E9080182
:101870000843696821F4741108436860C6F86090F1
:10188000FFF76AFC044606E025E000BFFFF764FCB2
:10189000001B022809D828688001F7D51BE000BF8B
:1018A000FFF75AFC001B022802D90320BDE8F88F7D
:1018B00028688001F4D40EE00128F7D06868226A15
:1018C00000F48031914204D1616A00F470108842C2
:1018D00001D00120EAE70020E8E700000010024004
:1018E000000042428004424230000020007000406C
:1018F00070B5040009D0606A002540B125616561BA
:10190000A56294F8510040B10CE0012070BD606800
:10191000B0F5827FF4D0E561F2E784F850502046BC
:1019200000F040F8022084F851002068016821F09E
:1019300040010160A088218900F4827001F4044113
:101940000843A18901F400610843217C01F00201F0
:101950000843217D01F001010843218B01F400714E
:101960000843217F01F03801084394F8201001F06A
:1019700080010843218D01F400510843216808606B
:10198000A069042101EA1040216848602068C1690B
:1019900021F40061C1616565012084F851000020D7
:1019A00070BD000030B585B000240094019402940D
:1019B000039400681549884225D11548C16941F44E
:1019C0008041C161C16901F480410491816941F0A4
:1019D0000801816180690F4D00F0080004904FF408
:1019E0002040009002200190032003906946284681
:1019F000FFF7B8FA4FF48040CDE900046946284665
:101A00000294FFF7AFFA05B030BD00000038004087
:101A100000100240000C01402DE9F84F9846164690
:101A20008A460446FFF798FB814694F85100012846
:101A30001ED1BAF1000F73D0002E71D094F850006F
:101A4000012815D0012784F85070032084F8510034
:101A500000256565C4F830A0A686E686A563A5873F
:101A6000E58765642564A068B0F5004F03D00CE0FD
:101A70000220BDE8F88F2068016821F04001016074
:101A80002068016841F480410160206801684906CE
:101A900003D4016841F040010160E068B0F5006FD7
:101AA000606803D048B3012E27D047E008B1012E6B
:101AB0001FD1206B21680088C86006E0206881681B
:101AC000890709D5216B0988C160206B801C2063C0
:101AD000E08E401EE0860CE0FFF73EFBA0EB090124
:101AE000414503D3B8F1FF3F03D035E0B8F1000F13
:101AF00032D0E08E0028E1D123E0206B216800780D
:101B0000087306E02068816889070AD5216B097887
:101B10000173206B401C2063E08E401EE0860DE0C8
:101B20002BE0FFF719FBA0EB0901414503D3B8F106
:101B3000FF3F03D010E0B8F1000F0DD0E08E002879
:101B4000E0D14A464146204601F0A4F808B12020E1
:101B50006065A06830B109E084F8517084F8505095
:101B6000032086E72068C1688068009084F851707F
:101B700004F8505F60680028F3D0012079E72DE970
:101B8000FF4F81B01D46934604464FF001090E9E5B
:101B9000FFF7E2FA074694F851006168012806D081
:101BA000B1F5827F3CD1A168C9BB042838D1029825
:101BB000002871D0BBF1000FFBD0002DF9D094F8B4
:101BC000500001282CD04FF0010A84F850A094F85E
:101BD0005100042802D0052084F851004FF000087D
:101BE000C4F85480C4F838B0E587A587029921630A
:101BF000E586A586C4F84080C4F844802068016862
:101C0000490603D4016841F040010160E068B0F585
:101C1000006F606808D0F0B3012D49D081E0FFE784
:101C2000022005B0BDE8F08F08B1012D39D1206B3D
:101C300021680088C860206B801C2063E08E401EF5
:101C4000E0862EE02068816889070FD5E18E69B1B2
:101C5000B9F1010F0AD1216B0988C160206B801C8A
:101C60002063E08E401EE0864FF000092068816806
:101C7000C9070CD0E18F51B1C068A16B0880A06B7F
:101C8000801CA063E08F401EE0874FF00109FFF742
:101C900063FAC01B01E00BE067E0B04201D3701CA7
:101CA00050D1E08E0028CDD1E08F0028CAD13EE08F
:101CB000206B216800780873206B401C2063E08E45
:101CC000401EE0862DE02068816889070FD5E18EEF
:101CD00069B1B9F1010F0AD1216B09780173206B49
:101CE000401C2063E08E401EE0864FF00009206813
:101CF0008168C9070CD0E18F51B1C068A16B087031
:101D0000A06B401CA063E08F401EE0874FF00109EC
:101D1000FFF722FAC01BB04202D3701C01D011E0C1
:101D200086B1E08E0028CED1E08F0028CBD13A4694
:101D30003146204600F0AEFF50B12020606584F8A7
:101D4000508012E084F851A084F85080032068E7A6
:101D5000A06818B92068C1688068009084F851A014
:101D600084F85080606D0028F1D0012059E7704759
:101D70007047000070B590F83C20012A26D001245D
:101D800080F83C40022280F83D2003685A689D6834
:101D900022F070060A6832435A600D4B02689A427C
:101DA00008D0B2F1804F05D00A4B9A4202D00A4BBC
:101DB0009A4204D1496825F080031943916080F864
:101DC0003D40002180F83C10084670BD022070BDE7
:101DD000002C0140000400400008004010B5040041
:101DE00003D094F83D0010B107E0012010BD0020A1
:101DF00084F83C00204600F01FF8022084F83D00E3
:101E0000211D206801F02CF8012084F8460084F898
:101E10003E0084F83F0084F8400084F8410084F8D4
:101E2000420084F8430084F8440084F8450084F8B4
:101E30003D00002010BD000008B501681448B1F154
:101E4000804F14D0134A914220D1C16941F004015E
:101E5000C161C069002200F00400009005211E202D
:101E6000FFF712FA1E20BDE80840FFF7FFB9C1696D
:101E700041F00101C161C069002200F00100009041
:101E800007211C20FFF700FA1C20ECE708BD00002A
:101E9000001002400008004090F83D10012901D0D8
:101EA00001207047022180F83D100168CA6842F0A5
:101EB0000102CA6000680B49884208D0B0F1804F27
:101EC00005D00949884202D00849884204D1816876
:101ED00001F00701062903D0016841F0010101600A
:101EE00000207047002C0140000400400008004022
:101EF0000168CA6822F00102CA6001680A6A41F2F8
:101F000011131A4207D10A6A9B101A4203D10A68B8
:101F100022F001020A60012180F83D100020704784
:101F200070B5044690F83C000025012817D0012622
:101F300084F83C60022084F83D002068826822F02A
:101F4000770222F47F4282600868502838D00DDC86
:101F500020284FD005DC90B3102811D14AE0022090
:101F600070BD302846D040280AD13BE060282FD0F1
:101F700070280DD0B0F5805F03D0B0F5005F12D0AF
:101F8000012584F83D60002084F83C00284670BD9F
:101F9000CB68D1E90121206800F0ABFF206881689F
:101FA00041F0770109E0CB68D1E90121206800F018
:101FB000A0FF2068816841F480418160E1E719E079
:101FC000CA684968206800F0A6FF5021206806E032
:101FD000CA684968206800F0AFFF6021206800F0FF
:101FE00092FFCEE7CA684968206800F094FF40215C
:101FF0002068F4E7226801461046F0E72DE9F04139
:102000000D46040003D094F83D0018B108E001200B
:10201000BDE8F081002084F83C00204600F040F844
:10202000022084F83D002068816844F20702914351
:102030008160211D206800F013FF2268906891697B
:10204000166A2B68AF69034340F20330814341EACB
:102050000721A868EF6908434FF6FC418843E96807
:1020600040EA0720014328692F6A000140EA07304F
:10207000084369686D6926F0220646EA051529437A
:1020800093602268906154F8460B0162012004F8C5
:102090001F09E0752076E0762077A0750020B7E76D
:1020A00000B585B000210091019102910391006873
:1020B0000E49884218D10E48C16941F00201C16140
:1020C000C16901F002010491816941F0040181615B
:1020D0008069694600F004000490C020009001204F
:1020E00002900448FEF73EFF05B000BD000400402A
:1020F000001002400008014070B590F83E600446B0
:1021000090F83F5090F8423090F84320022021B1DF
:1021100004290ED0012E1BD114E0012E18D1012B61
:1021200016D184F83E0084F8420001220021206884
:1021300020E0012D0CD1012A0AD184F83F0084F857
:10214000430014E0012D03D1012B01D1012A01D05C
:10215000012070BD84F83E0084F83F0084F84200FE
:1021600084F8430001220021206800F0B5FE01221E
:102170000421206800F0B0FE2068016841F00101F0
:102180000160002070BD70472DE9F04104460068F1
:10219000C66805694FF00007A90713D5B10711D527
:1021A000F91E0161012020772068806980072046A0
:1021B00002D0FFF7E8FF04E000F07EF8204600F0D0
:1021C0007CF82777680716D5700714D521686FF05B
:1021D00004000861022020772068806910F4407FA5
:1021E000204602D0FFF7CFFF04E000F065F820465C
:1021F00000F063F82777280715D5300713D5216835
:102200006FF008000861042020772068C06980070B
:10221000204602D0FFF7B7FF04E000F04DF820465B
:1022200000F04BF82777E80616D5F00614D521689C
:102230006FF010000861082020772068C06910F452
:10224000407F204602D0FFF79EFF04E000F034F804
:10225000204600F032F82777E80708D0F00706D0CC
:1022600021686FF001000861204600F027F8280679
:1022700008D5300606D521686FF080000861204639
:10228000FFF775FD680608D5700606D521686FF062
:1022900040000861204600F049F8A8060AD5B006BB
:1022A00008D521686FF0200008612046BDE8F041A4
:1022B000FFF75EBDBDE8F0817047704770B50068FC
:1022C0001649884203D1BDE87040FEF74BBFB0F11C
:1022D000804F22D1124D40212846FEF733FF114C8A
:1022E00050B180212846FEF72DFF48B12021284615
:1022F000FEF728FF40B10BE0207840F0010006E037
:10230000207840F0020002E0207840F004002070C5
:10231000BDE870400448FFF7EBBD70BD002C0140E4
:10232000000C014020000020A8010020704770B57B
:10233000040004D094F84100002510B106E001200B
:1023400070BD84F84050204600F024F8242084F822
:1023500041002068C16821F40051C160204600F0AE
:10236000FDFD2068016921F4904101612068416907
:1023700021F02A0141612068C16841F40051C16027
:102380006564202084F8410084F8420065630020E1
:1023900070BD000030B585B0002400940194029413
:1023A000039400681449884224D11448816941F497
:1023B00080418161816901F480410491816941F02A
:1023C0000401816180690E4D00F0040004904FF417
:1023D0000070009002200190032003906946284677
:1023E000FEF7C0FD2815CDE9000469462846029491
:1023F000FEF7B8FD05B030BD0038014000100240C6
:1024000000080140FEE7000010B50E4C00228021BC
:102410002046FEF79CFE00F017F8012240212046DE
:10242000FEF795FE00F010F8002240212046FEF74E
:102430008EFE00F009F820460122BDE81040802100
:10244000FEF785BE000C01400020401CC0B20A28E7
:10245000FBD370470C4800B5816985B041F0080195
:1024600081618069694600F008000490C0200090F6
:1024700003200390112001900448FEF773FD00F043
:102480009DF805B000BD000000100240000C0140A6
:1024900010B50C4C012280212046FEF758FEFFF7B4
:1024A000D3FF012240212046FEF751FEFFF7CCFF6B
:1024B000002240212046FEF74AFEBDE81040FFF70B
:1024C000C3BF0000000C01402DE9F0410024134E71
:1024D000074625466006040E012240213046FEF7DD
:1024E00036FEFFF7B1FF80213046FEF72BFE08B124
:1024F000641CE4B2002240213046FEF728FEFFF7BC
:10250000A3FF6D1CEDB2082DE4D327B1FFF77CFFCC
:102510002046BDE8F081FFF7BBFFF9E7000C014062
:1025200070B5154E05460024280601D5012200E0AD
:10253000002280213046FEF70AFEFFF785FF0122C8
:1025400040213046FEF703FEFFF77EFF00224021C8
:102550003046FEF7FCFD072C04D1012280213046D5
:10256000FEF7F5FD6806050EFFF76EFF641CE4B28A
:10257000082CD9D370BD0000000C014010B50E4CE2
:10258000012280212046FEF7E2FD01224021204663
:10259000FEF7DDFDFFF758FF002280212046FEF701
:1025A000D6FDFFF751FF002240212046FEF7CFFD68
:1025B000BDE81040FFF748BF000C014010B50A4CC1
:1025C000002280212046FEF7C2FD01224021204644
:1025D000FEF7BDFDFFF738FF20460122BDE81040A1
:1025E0008021FEF7B4BD0000000C014070B5104D15
:1025F000012280212846FEF7AAFDFFF725FF0122D0
:1026000040212846FEF7A3FDFFF71EFF8021284644
:10261000FEF798FD08B1012400E0002400224021CB
:102620002846FEF794FDFFF70FFF204670BD00001F
:10263000000C01400F4C002508E00E4A1C32111F0F
:10264000081F02F015FD2078401C2070094A1C323A
:10265000111F081F02F00CFD10B120780328ECD3E5
:102660002570D4E90601044AFEF7B4FA0A2004F002
:102670004DFAEBE7000000200001002010B5FFF745
:10268000E9FE80216B2000F0C0F86420FEF740FCDA
:1026900000216B2000F0B9F8032000F082F8002040
:1026A00000F07AF8642000F099F80021382000F05A
:1026B000ACF800216A2000F0A8F80021232000F0E7
:1026C000A4F88021372000F0A0F8752000F011F860
:1026D000682801D0012010BD01216B2000F095F881
:1026E00000216C2000F091F8642000F077F80020C1
:1026F00010BD10B50446FFF741FFD020FFF710FFD3
:10270000FFF774FF2046FFF70BFFFFF76FFFFFF7A0
:1027100035FFD120FFF704FFFFF768FF0020FFF728
:10272000D3FE0446FFF74AFF204610BD2DE9F041D5
:102730001D4614460F460646FFF720FF7006000EA2
:10274000FFF7EEFEFFF752FF20B1FFF737FF012042
:10275000BDE8F0813846FFF7E3FEFFF747FFFFF7DC
:102760000DFF012000EB4600C0B2FFF7D9FEFFF7D6
:102770003DFF09E0012C0DD05FF00100FFF7A4FE42
:10278000641E05F8010BE4B2002CF3D1FFF716FF2D
:102790000020DDE70020F1E7C006010E1C2000F05C
:1027A00034B8C006010E1B2000F02FB8BC2801D39E
:1027B000012110E0622801D302210CE02A2801D374
:1027C000032108E0142801D3042104E00A2801D3DE
:1027D000052100E006211A2000F017B810B50446C4
:1027E0004FF47A70844201D9044602E0042C00D2EE
:1027F0000424B0FBF4F0401EC1B2192000F005F82B
:102800006008BDE81040FFF7D1BF70B50C46054623
:10281000FFF7B4FED020FFF783FEFFF7E7FE50B9C5
:102820002846FFF77DFEFFF7E1FE2046FFF778FE22
:10283000FFF7DCFE18B1FFF7C1FE012070BDFFF706
:10284000BDFE002070BD2DE9F0411E4615460F4625
:102850000446FFF793FE6006000EFFF761FEFFF7E8
:10286000C5FE60B93846FFF75BFEFFF7BFFE0024E8
:102870000CE0305DFFF754FEFFF7B8FE20B1FFF724
:102880009DFE0120BDE8F081641CE4B2AC42F0D3AF
:10289000FFF794FE0020F5E73EB5002410480094B1
:1028A000019402940D49846001600473047501254C
:1028B00005614FF460214460C161FEF76FFA08B111
:1028C000FEF7ECF9CDE90045694605480294FEF7AC
:1028D000E7F9002801D0FEF7E1F93EBD00240140F0
:1028E000200100201CB500F0A3F9FFF7C7FE08B1D6
:1028F0000EA000E013A000F0FFFB02F087FC1749D8
:102900001C20CDE900010023802215A1184804F005
:10291000ABFC12491B20091DCDE9000100238022D8
:1029200014A1174804F0A0FC1CBD00004D50553602
:102930003035305F496E6974204572726F722E0DAA
:102940000A0000004D5055363035305F496E6974CD
:1029500020537563636573732E0D0A000C0000200D
:102960004D5055363035305F5461736B00000000B8
:1029700035260008554152545F5461736B000000C6
:1029800015300008F0B585B0002531480095019557
:1029900002950395816941F020018161816901F00F
:1029A00020010491816941F004018161816901F094
:1029B00004010491816941F0080181618069254E1B
:1029C00000F008000490002206213046FEF7BFFB0D
:1029D000214F01224FF470613846FEF7B8FB062004
:1029E0000124CDE90004022002900390694630469C
:1029F000FEF7B8FA4FF4406003268DE8710069468F
:102A00003846FEF7AFFA2003CDE900056946029487
:102A10003846FEF7A7FAE02000901048CDE90104FF
:102A200069463846FEF79EFA3002009001AA11204E
:102A300082E8510069463846FEF794FA00220621E2
:102A40001720FEF721FC1720FEF710FC05B0F0BDA3
:102A50000010024000080140000C0140000021105D
:102A6000104810B50E4901604FF482714160002199
:102A70008160C1604FF400720161C0E90512182243
:102A8000C0E90721416281620A21C162FEF730FF7D
:102A9000002803D0BDE81040FEF700B910BD0000CB
:102AA000003800405001002010B586B000241848BE
:102AB000009401940294039404944FF0804105948F
:102AC000016040F2CF21C0E9011440F2CF71C0E9AA
:102AD000031480218161FFF781F908B1FEF7DEF868
:102AE0004FF48050009069460948FFF719FA08B181
:102AF000FEF7D4F8049404A905480594FFF73AF9C1
:102B000008B1FEF7CBF80248FFF7F2F906B010BDA6
:102B1000A801002010B58CB024216846FDF7A8FB61
:102B200000241848099416490A94C0E900144FF685
:102B3000FF71C0E90241046184610320CDE9000412
:102B40000120CDE902040F210491CDE90540CDE932
:102B5000074169460B48FFF751FA08B1FEF79EF8A6
:102B6000099409A907480A94FFF704F908B1FEF788
:102B700095F83C210348FFF7BFFA0CB010BD0000E8
:102B800000040040F001002010B586B00024184871
:102B900000940194029403940494144905940160F0
:102BA00040F2CF21C0E9011440F2E731C0E903143B
:102BB0008461FFF713F908B1FEF770F84FF4805005
:102BC000009069460A48FFF7ABF908B1FEF766F8CE
:102BD000049404A906480594FFF7CCF808B1FEF761
:102BE0005DF80348FFF784F906B010BD0008004007
:102BF000380200200C4810B50A4901604FF4E13159
:102C00004160002181600C22C160C0E90412816131
:102C1000C161FFF78CFB002803D0BDE81040FEF730
:102C20003DB810BD0038014080020020FEE7FEE7FD
:102C300010B5002000F036FA05221549302000F0CA
:102C400019FA13490522491D2A2000F013FA0F2111
:102C5000202000F03FFA0121212000F03BFA002162
:102C6000252000F037FA2021312000F033FA01212D
:102C7000222000F02FFA1A21242000F02BFAFF2145
:102C8000E22000F027FABDE81040012000F00ABA67
:102C900034000020F8B515460E460B460092044657
:102CA0000122022100F024F840B93346002280219D
:102CB0002046009500F01CF8002804D0606D40F01C
:102CC000200060650320F8BD01B582B000208DF8BA
:102CD00004004FF47A700090012301AA02A903486E
:102CE000FEF74DFF9DF804000EBD000050010020CE
:102CF0002DE9F8431E46914688460446089DFEF796
:102D00002BFA401B351AFEF727FA074625480068BC
:102D1000C0F3CB30684338E0701C37D0FEF71CFAA4
:102D2000C01BA84203D215B1009860B32CE0206804
:102D3000416821F0E00141606068B0F5827F0BD10D
:102D4000A068B0F5004F02D0B0F5806F04D12068C4
:102D5000016821F040010160A06AB0F5005F09D16F
:102D60002068016821F4005101602068016841F485
:102D700000510160012084F85100002084F85000C7
:102D80000320BDE8F8830025401E0090206881687C
:102D900038EA010004D000214945BDD10020F0E708
:102DA0000121F9E73000002010B54FF0E020006964
:102DB00004F0B2FA012803D0BDE8104003F0E0BFF0
:102DC00010BD30B593B028216846FDF751FA1421A3
:102DD0000AA8FDF74DFA002501200F9510951195D1
:102DE000010412958DE8230004904FF4E010CDE922
:102DF0000810022407946846FEF7EAFB08B172B691
:102E0000FEE70AA90F2081E831004FF48060CDE988
:102E10000D0502210AA8FEF7DFFA08B172B6FEE737
:102E20004FF4004011900F940FA8FEF75FFA0028AE
:102E300001D072B6FEE713B030BD70470148FFF70E
:102E4000A3B90000C80200200148FFF79DB90000A7
:102E5000A80100200148FFF797B9000038020020C0
:102E6000F0B50268194B1A4C1A4D4FF08047984242
:102E700005D0B84203D0A04201D0A84203D122F02D
:102E800070064A683243984205D0B84203D0A04247
:102E900001D0A84203D122F44074CA6822434C698D
:102EA00022F08002224302608A68C2620A6882625B
:102EB000984201D109690163012141610169C90792
:102EC00003D0016921F001010161F0BD002C014036
:102ED000000400400008004010B501F01F0301216C
:102EE000046A99408C430462016A9A40114301626A
:102EF00010BD10B5846842EA032224F47F440A43DB
:102F00002243826010BD826822F070020A4342F0C0
:102F100007018160704710B5036A046A24F0010458
:102F20000462846924F0F00444EA021423F00A02E3
:102F30000A438461026210BD10B5036A046A24F07A
:102F400010040462846923F0A00324F4704444EA6A
:102F5000023243EA01118261016210BD70B504467C
:102F600000680169E26821F440511143016121695F
:102F7000A0680843616908432168CA6841F20C638C
:102F80009A430243CA6020684169A26921F44071F2
:102F9000114341611E492068884202D1FEF7E2FADE
:102FA00001E0FEF7CFFA00EBC00101EB0012606810
:102FB00064218000B2FBF0F3B3FBF1F36FF018066D
:102FC0007343B2FBF0F5B2FBF0F605EB8305322359
:102FD00003EB0515B5FBF1F5B6FBF1F605F0F005D1
:102FE00005EB0615B2FBF0F6B2FBF0F0B0FBF1F02A
:102FF0006FF01802504306EB800003EB0010B0FBAB
:10300000F1F0216800F00F002844886070BD0000D6
:10301000003801401FB50D4C4FF47A79E069FDF797
:10302000D6FB07468846A069FDF7D1FB05460E464C
:103030006069FDF7CCFB8DE8E00102460B4604A079
:1030400000F05AF8484603F061FDE7E70000002071
:1030500070697463683A252E31662C726F6C6C3A15
:10306000252E31662C7961773A252E3166000000D5
:10307000FEE7000070B5064614460D46002000F03D
:103080001DF83046FFF720FE4FF47A73224629469A
:103090000348FEF7C1FCBDE87040012000F00EB807
:1030A0005001002008B1012200E000224FF400612D
:1030B0000148FEF74CB80000000C014008B10122A5
:1030C00000E000224FF480610148FEF740B80000A4
:1030D000000C014070B504460D460020FFF7EEFFDE
:1030E0002046FFF7F1FD2846FFF7EEFDBDE87040F2
:1030F0000120FFF7E3BF00000FB4054B10B503A993
:10310000044A029800F06CF910BC5DF814FB000052
:10311000D54A0008F8000020490050EAC12018BF35
:1031200004204A0D18BF40F0010040F2FF72B2EBDC
:10313000515F08BF40F00200012808BF052070471A
:103140000907090E002804DB00F1E02080F80014D4
:10315000704700F00F0000F1E02080F8141D704768
:103160002DE9F0414F1E00EBC7010446D1E90001F3
:1031700015461E4637F006020DD02A463346FDF7A7
:103180000AFA7F1E04EBC703D3E90023FDF75CF9BD
:1031900037F00602F1D1022F25D0042F13D0062FCD
:1031A00018BFBDE8F0812A463346FDF7F4F9D4E9AB
:1031B0000A23FDF749F92A463346FDF7ECF9D4E92D
:1031C0000823FDF741F92A463346FDF7E4F9D4E92F
:1031D0000623FDF739F92A463346FDF7DCF9D4E931
:1031E0000423FDF731F92A463346FDF7D4F9D4E933
:1031F0000223FDF729F92A463346FDF7CCF9D4E935
:103200000023BDE8F041FDF71FB90122FDF70ABC1C
:10321000FDF71AB90022134610461146FDF72DBAE4
:10322000024A00201107FDF7FDBB000001FDFFFF72
:1032300002E008C8121F08C1002AFAD1704770477F
:10324000002001E001C1121F002AFBD170470000DD
:103250000149086070470000FC0000202DE9FF5F75
:1032600082B00021DDE90430020DDDF840B00343F7
:1032700018D044F61050A2F2FF32424315141198B0
:1032800001281FD0A5EB0B00401C5FEA000A4FF09D
:1032900000064E4FDFF83891B046504615D5CAF1BA
:1032A000000413E0119801244AA3012801D16FEA18
:1032B0000B010298119AC0E90031C0E9024206B040
:1032C000BDE8F09FCBF10000DFE704460021404A53
:1032D000491842EB0450CDE9001012E0E00707D096
:1032E00032463B4640464946FDF755F980468946F9
:1032F00032463B4610461946FDF74DF906460F4645
:103300006410002CEAD1DDE90401DDE90023BAF103
:10331000000F06DAFDF73FF942464B46FDF73BF951
:1033200005E0FDF7AAF942464B46FDF7A6F904462B
:103330000E460022284BFDF7A5FB03D84FF0FF30C7
:10334000014607E00022254B20463146FDF77CF878
:10335000FDF77FFB102409E0002C0ADB0A22002382
:10336000FDF77AFA039B30321A55641E50EA0102C7
:10337000F2D1641C039AC4F111031444119A012A76
:1033800003D0012208430DD10AE0084304D00020F5
:103390004FF0110B119072E7A3EB0B056D1E0DE0C2
:1033A0005B4504DD4FF0000205F1010504E003DA9E
:1033B0004FF00002A5F10105002AECD00298119906
:1033C000C0E90231C0E9004579E70000000014407F
:1033D0000000F03F300000000000F0430000E03F3C
:1033E0002DE9FF4F95B09B468946064600250FE222
:1033F000252877D100242746F84A0121059400E0CA
:10340000044316F8013F203B01FA03F01042F7D1C4
:1034100030782A2811D06FF02F033078A0F13002D5
:10342000092A16D8059A44F0020402EB820203EB43
:1034300042021044761C0590EFE759F8042B0592E0
:10344000002A03DA504244F40054059044F0020488
:10345000761C30782E2816D116F8010F44F004049B
:103460002A280DD06FF02F023078A0F13003092BFD
:1034700009D807EB870302EB4303C718761CF3E771
:1034800059F8047B761C30786C280FD006DC4C2869
:1034900017D068280DD06A2814D104E0742810D001
:1034A0007A280FD10DE044F400140AE044F48014AB
:1034B00001E044F440147278824202D104F5801491
:1034C000761C761C307866280BD013DC582877D011
:1034D00009DC002875D04528F6D04628F4D04728C6
:1034E0001AD19DE118E0632835D0642879D0652889
:1034F00012D195E1702873D008DC6728F1D06928D3
:103500006FD06E280DD06F2806D1B5E073282CD06F
:10351000752875D0782874D05A46179990476D1C35
:1035200075E1C4F30250022809D003280DD0D9F860
:10353000001004280DD00D6009F1040967E1D9F8E5
:103540000010EA17C1E90052F6E7D9F800100D8023
:10355000F2E70D70F0E719F8041B8DF80010002059
:103560008DF80100EA46012003E059F804AB4FF062
:10357000FF3061074FF0000102D40DE008F10101B6
:103580008846B9420FDA8045F8DB1AF8081000299E
:10359000F4D108E008F1010188468142FADB1AF80B
:1035A00008100029F6D105985B46A0EB08072146D4
:1035B0003846179A00F094FA284400EB080507E013
:1035C0004DE029E10DE01AF8010B5A461799904792
:1035D000B8F10108F7D25B4621463846179A13E145
:1035E00042E00A220092C4F302524FF0000A022A7B
:1035F00008D059F804CB032A4FEAEC710AD00DE049
:1036000029E02AE009F1070121F00702F2E802C1EE
:10361000914609E00FFA8CFC4FEAEC71042A03D1C1
:103620004FFA8CFC4FEAEC71002907DA0A460021B8
:10363000DCF1000C61EB02012D2202E0220504D531
:103640002B228DF80420012203E0E20701D0202282
:10365000F7E7904659E00A2102E010220DE0102120
:103660004FF0000A00910BE010224FF0000A44F0E6
:1036700004040827009203E008224FF0000A009299
:10368000C4F30252022A05D059F804CB0021032AC0
:1036900008D009E009F1070121F00702F2E802C1B0
:1036A000914605E01FFA8CFC042A01D10CF0FF0CB6
:1036B0004FF00008220728D5702806D0009B83F021
:1036C000100353EA0A0305D00EE040228DF80420CF
:1036D000012208E05CEA010206D030228DF80420C5
:1036E0008DF8050002229046009B83F0080353EA00
:1036F0000A030AD15CEA010201D1620705D5302232
:103700008DF804204FF001087F1E582804D034A003
:1037100003900EA802900DE036A0F9E753466046EC
:10372000009AFDF799F884460398825C0298401E3F
:10373000029002705CEA0100F0D1029806A9081A12
:1037400000F1200A600702D524F4803400E001274C
:10375000574502DDA7EB0A0000E0002000EB0A015C
:10376000009005984144401A0590E00306D45B465A
:103770002146179A059800F0B3F90544002706E0A2
:1037800001A85A46C05D179990476D1C7F1C47459C
:10379000F6DBE0030CD55B462146179A059800F04E
:1037A0009FF9054404E030205A46179990476D1C54
:1037B0000099481E00900029F5DC08E00298029963
:1037C0005A460078491C0291179990476D1CBAF12E
:1037D0000001AAF1010AF1DC65E1000009280100FD
:1037E0003031323334353637383961626364656677
:1037F0000000000030313233343536373839414239
:10380000434445460000000000F058F90544761C8A
:10381000307800287FF4ECAD19B02846BDE8F08F71
:10382000620700D4062709F1070222F0070CFCE822
:103830000223E14603F000485FEA080C02D00FF2D1
:10384000702C0DE05FEA045C02D50FF2682C07E0F3
:103850005FEAC47C02D00FF2602C01E0AFF2700C82
:103860004FF0FF3823F00043CDF850C065280CD04E
:1038700006DC452809D046281DD047283DD13DE02B
:10388000662818D067287ED138E00021112F01DB8F
:10389000112000E0781CCDE9000106A90EA8FFF771
:1038A000DDFCDDE90F010E9A03910021009207F182
:1038B000010A04914DE04FF000400097CDE901105E
:1038C00006A90EA8FFF7CAFCDDE90F0203920E9BC2
:1038D00011990022DDF80CA00093049211B9791C13
:1038E00000EB010AB7EB0A0004D4C0F1FF3007F186
:1038F000010A0490AAEB0700019044E0012F00DACE
:1039000001270021112F01DD112000E03846CDE90B
:10391000000106A90EA8FFF7A1FCDDE90F010E9A30
:103920000391002104910092BA4621070CD4039917
:10393000514500DA8A46BAF1010F05DD009AAAF175
:103940000101515C302908D0B84202DA10F1040FAD
:1039500006DA0121CDE9011015E0AAF10101E9E73C
:10396000002805DC049901440491AAEB000102E05F
:10397000411C514500DD8A460499401A401C0190C3
:103980004FF000400290200704D40198504501DB1D
:10399000CDF8048000208DF84F0002980DF14F07FC
:1039A000B0F1004F25D02B200E9002984FF0020866
:1039B00000280CDA404202902D200E9007E00A21E8
:1039C0000298FCF733FF3031029007F8011DB8F17F
:1039D0000001A8F10108F2DC02980028EFD1791E5D
:1039E0000E980870307800F0200040F0450007F88D
:1039F000020D12A8C01B00F107081498007800B14E
:103A0000012000EB0A01019801EBE07105984144A7
:103A1000401A401E0590E00306D45B462146179AE3
:103A2000059800F05DF805441498007818B15A46DE
:103A3000179990476D1CE00324D55B462146179AE1
:103A4000059800F04DF805441CE00498002807DBB9
:103A5000DDE90301884203DD0098405C179901E02D
:103A6000179930205A469047049805F10105401CEB
:103A700004900198401E019004D12E205A461799B7
:103A800090476D1CBAF10001AAF1010ADDDC05E0E6
:103A900017F8010B5A46179990476D1CB8F10001B1
:103AA000A8F10108F4DC5B462146179A0598ABE6BD
:103AB0002D0000002B000000200000002DE9F04147
:103AC000044600251E461746880404D405E03946FE
:103AD0002020B0476D1C641EF9D52846BDE8F08152
:103AE0002DE9F041044600251E469046C80301D545
:103AF000302700E02027880404D505E041463846F9
:103B0000B0476D1C641EF9D52846BDE8F081000061
:103B10002DE9FE4F07460E460025684600F0E4FFFB
:103B200000246FF00F0AE8464FF0010957F824000F
:103B300056F82410401A00D54042FCF70DFE5146BD
:103B4000FCF776FC58F8241011F0FF4F0BD0FCF76F
:103B500031FC4FF07E51FCF7F5FB0A4920F00040A4
:103B6000884205DC07E0084908440849884202D336
:103B700009FA04F00543641C032CD7DB2846BDE892
:103B8000FE8F0000295C0F3E666666C19A99D900D7
:103B90002DE9F04D8D4F21F0004A86B005460C46C8
:103BA000BA452ADBAAEB070028430AD08848824599
:103BB00001DC1AD1CDB106B02846BDE8F04DFFF7C3
:103BC00024BB844A844B2846FCF7E5FC07460E4696
:103BD000824A834B28462146FCF7DDFC06B03A4674
:103BE0003346BDE8F04DFCF72FBC0120FFF730FB5A
:103BF00006B0BDE8F04DFFF70DBB7A48824542DACA
:103C0000BAF1795F0BDA2846FFF786FA042808BF75
:103C1000FFF706FB284606B02146BDE8F08D2A4690
:103C20000B461046FCF7B7FC834602466E480E462C
:103C30000B4606217844FFF793FA5A463346FCF7C1
:103C4000AAFC804669488A465A463346042178448D
:103C5000FFF786FA5A463346FCF79DFC00223B46A6
:103C6000FCF7F2FB02460B4640465146FCF705FDC9
:103C70002A462346FCF78FFC06B02A462346BDE8B9
:103C8000F04DFCF7E1BB284624F0004100223D4600
:103C90003B46FCF77DFC4FF0FF32FCF7C3FE0646C7
:103CA000024653480F460B4606217844FFF758FA60
:103CB00032463B46FCF76FFCCDE900014D483246E9
:103CC0003B4604217844FFF74BFA32463B46FCF76B
:103CD00062FC00222B46FCF7B7FB8346029130467C
:103CE000394602F0B9FD804643480D46504517DC81
:103CF000DDE900015A46029BFCF7BFFC42462B4619
:103D0000FCF749FC42462B46FCF79EFB0122FCF7E0
:103D100089FE304A304BFCF738FC304A304B4CE0DF
:103D20004FF0000A52460B464046FCF78DFBCDE9AA
:103D3000031052462B4610461946FCF72CFC32461F
:103D40003B46FCF725FCDDE90332FCF796FC064612
:103D50000F46DDE900015A46029BFCF78EFC8346C4
:103D60000091012230463946FCF75CFE194A1A4B95
:103D7000FCF70EFC06460F46012240462946FCF79A
:103D800051FE5A46009BFCF706FC32463B46FCF7C8
:103D9000FCFB06460F46012250462946FCF742FE30
:103DA0000E4DDFF858802A464346FCF7F1FB3246B9
:103DB0003B46FCF7EDFB2A464346FCF7E9FB002CAB
:103DC000D8BF81F0004106B0BDE8F08D0000F03FA3
:103DD0000000F07F075C143326A6913C182D445454
:103DE000FB21F93F0000E03FC0460000D64600003E
:103DF0004A460000604600003333EF3FFB21E93FB5
:103E00002DE9F84F04460D4621F00040009173491A
:103E1000814211DC7249884201DC06D12CB1204676
:103E20002946BDE8F84FFFF7F0B96E48002DCCBF2A
:103E30006D496E49BDE8F88F6D49814211DD6D49CC
:103E40008142D8BF4FF0FF366DDD20462946FFF78F
:103E500063F9042808BFFFF7E3F920462946BDE8C7
:103E6000F88F6549654F25F00045814233DD64498F
:103E7000814219DD002632464FF080432046294614
:103E8000FCF7E2FA80468A46012220462946FCF7E2
:103E9000C9FD00223B46FCF778FB42465346FCF73F
:103EA000ECFB04460D463EE001260022BA463B46A6
:103EB00020462946FCF7C8FA80460F4600225346A2
:103EC00020462946FCF761FB42463B46FCF7D5FB02
:103ED00004460D4627E04B4981421BDDDFF828A14F
:103EE00002260022534620462946FCF754FB0022B6
:103EF0003B46FCF7A9FA80460F460022534620466F
:103F00002946FCF742FB42463B46FCF7B6FB04461B
:103F10000D4608E0032622462B4600203B49FCF7CD
:103F2000ACFB04460D4622462B4610461946FCF7CC
:103F300032FB8B46824602460B46FCF72CFB0746BB
:103F40000246334888460B4606217844FFF708F9B5
:103F500052465B46FCF71FFB82462E488B463A468C
:103F6000434605217844FFF7FBF83A464346FCF701
:103F700012FB02460B46002E504659460CDAFCF75F
:103F800063FA22462B46FCF706FB01B022462B467D
:103F9000BDE8F04FFCF7FCBAFCF756FA22462B4678
:103FA000FCF7F9FA1C4A7A4402EBC603D3E9002372
:103FB000FCF7EBFA22462B46FCF7E7FA174A7A445D
:103FC00002EBC603D3E90023FCF7E2FA009A002AC9
:103FD000B8BF81F00041BDE8F88F00000000104438
:103FE0000000F07F182D4454FB21F93FFB21F9BF5D
:103FF0000000DC3F0000203E0000F33F0000F03FE7
:104000000000E63F008003400000F83F0000F0BFE2
:104010006244000020440000BE43000086430000CC
:104020002DE9F04D9446CCF1000423F000464CEA13
:104030000404524F46EAD4749A46884621F000425E
:10404000BC4206D8454240EA050442EAD474BC4268
:1040500004D9BDE8F04D6246FFF7DAB8AAF1405541
:10406000A5F17F6555EA0C040BD0022404EAAA747A
:10407000434DDFF810E144EAD87452EA000B04D053
:104080000CE0BDE8F04DFFF7BBBE002C14BF012CC7
:10409000BDE8F08D022C30D0032C32D056EA0C0B48
:1040A0000AD0BE4220D1BA4209D126F0804622F081
:1040B00080423346114617E000291ADB25E0DFF87D
:1040C000C8B0FB44002C04BFDBE90001BDE8F08D63
:1040D000012C02BFDBE9000181F00041BDE8F08D59
:1040E000022C0AD0032C0CD0BA4212D1B8F1000F26
:1040F0000BDA23482549BDE8F08D28462449BDE860
:10410000F08D28467146BDE8F08D1D482149BDE877
:10411000F08D921B12153C2AC4BF19481D490EDCB4
:10412000BAF1000FBEBF12F13C0F0020014606DBC2
:104130006246FCF7A2FA21F00041FFF761FE002C75
:1041400008BFBDE8F08D012C04BF81F00041BDE83F
:10415000F08D114A114B022C07D0FCF716FA2A46B3
:10416000BDE8F04D0A4BFCF710BAFCF70EFA2A46F0
:10417000BDE8F04D064BFCF70BBA00000000F07FE5
:10418000182D4454FB2109C01A430000FB21F9BF3C
:10419000FB210940FB21F93F075C143326A6A13C13
:1041A00008B560B120208DF8000028208DF80100AE
:1041B00030208DF8020038208DF8030004E0A3229F
:1041C00004216846FCF74DF86A46042140F69E201B
:1041D00001F034FE01F0F2FA08BD00003EB50446DD
:1041E00002208DF80000CA208DF80100E3208DF830
:1041F000020009208DF803006A460421682001F0BE
:104200001DFEA3208DF80000610609D5C0218DF8A0
:104210000110C8218DF80210C2218DF8031005E0AD
:104220008DF801008DF802008DF8030014F4C07FB2
:1042300009D0C4218DF80410CC218DF80510C621B9
:104240008DF8061005E08DF804008DF805008DF856
:1042500006008DF808008DF807008DF809006A4601
:104260000A2140F6A72001F0E9FDA0074FF0D8058C
:1042700003D020208DF8000001E08DF800506A4640
:10428000012140F6B62001F0D9FDA00601D501209C
:1042900000E0002000F08EF814F4C07F1ED0E0058E
:1042A0000AD5B2208DF800008B208DF80100B620D1
:1042B0008DF802009B2009E0B0208DF800008020DE
:1042C0008DF80100B4208DF8020090208DF80300D5
:1042D0006A46042140F6A22001F0B0FDE1074FF448
:1042E0000B6022D0F8218DF800106A46012101F000
:1042F000A5FDFA21072000F039FB072000F004FBA0
:10430000012000F021FB642000F0C4FB4FF4FA70A0
:1043100000F0D0FBC821254800F0BEFA282000F0AC
:10432000D3FA0A2000F0E0FA05E08DF800506A4662
:10433000012101F083FDA00703D5D9208DF80000ED
:1043400001E08DF800506A46012140F23D7001F015
:1043500075FD600701D5012000E0002000F048F85D
:10436000E00601D5012000E00020FFF719FF104D05
:1043700044F00800688101F021FA0020A87360066B
:1043800001D50620A87314F4C07F02D0A87B801D3D
:10439000A87314F0140F02D0A87B1030A873A007E4
:1043A00002D0A87B001DA87300203EBD09E3CA020D
:1043B000100300200EB54FF4976310B106A107C992
:1043C00001E008A207CA8DE807006A4609211846DD
:1043D00001F034FD0EBD0000B8AAB38DB4980D35C0
:1043E0005D000000B8AAAAAAB088C3C5C700000033
:1043F00008B560B1C0208DF80000C2208DF8010022
:10440000C4208DF80200C6208DF8030004E08B2242
:1044100004216846FBF725FF6A46042140F69820F0
:1044200001F00CFD01F0CAF908BD0000C8234FF4EB
:104430008062024940F6F63001F0A2B80077000829
:104440002DE9FF4F89B01746DDE9165200244C4E86
:10445000884681462C80A246B07B694601F03CF933
:104460004FF0FF3B18B158460DB0BDE8F08F708992
:1044700010F0140F3CD0009909BA21F0FF039DF809
:1044800003100B433B6001991B1409BA21F0FF0292
:104490009DF807105B430A437A6002999DF80B4030
:1044A00009BA21F0FF012143B960039C091424BA21
:1044B00024F0FF0C9DF80F4012144CEA040CC7F8CE
:1044C0000CC04FEA2C47494302FB023207FB07119D
:1044D00011441024A1F17061B1F1007F04D901F001
:1044E0006DF9A5F800A0BEE7298841F48071298004
:1044F0004206694611D50A19A41D13885BBAA8F8AB
:10450000003053885BBAA8F80230928852BAA8F8F3
:1045100004202A8842F008022A8010F4C07F11D0BB
:104520000A19A41D13885BBAA9F8003053885BBA36
:10453000A9F80230928852BAA9F804202A8842F0D9
:1045400070022A80800716D00C44E07800F0C00585
:1045500000F03F016078C00706D0C80801F00701ED
:104560003268491C02B190476078000703D5716832
:1045700009B1A80988470C9800F04EFD002073E7A8
:10458000100300202DE9FF41044603A800F0AEFE11
:10459000BDF80C00410CC3032F48028902F0030050
:1045A000550754F8200000D54042C2F3C1059606D5
:1045B00054F8255000D56D42C2F38116D20554F847
:1045C000264000D56442A0FB0367C21702FB0372BA
:1045D00000FB0120820042EA9670A5FB0367EA1700
:1045E00002FB037205FB0122950045EA9672A4FBCB
:1045F0000367E51705FB037304FB01318B0043EAF6
:104600009671030E8DF80030030C8DF80130030A0B
:104610008DF802308DF80300100E8DF80400100C98
:104620008DF80500100A8DF80600080E8DF80800B8
:10463000080C8DF80900080A8DF80A008DF807208B
:104640008DF80B106A460C214FF4257001F0F6FB33
:1046500004B0BDE8F08100001003002030B504462E
:1046600013A285B007CA8DE807004FF0FF35C82CAC
:1046700016D8C820B0FBF4F1491E080A8DF80C00CA
:104680008DF80D1003AA022140F2162001F0D6FB8E
:1046900030B96A460C2140F6C12001F0CFFB10B1C1
:1046A000284605B030BD054884810020F9E70000A8
:1046B000FEF2ABC4AAF1DFDFBBAFDFDF10030020E7
:1046C000F8B53049098901F0030250F822404A0741
:1046D00000D56442C1F3C1028B0650F8222000D5F8
:1046E0005242C1F3811350F82330C80500D55B4214
:1046F000254984FB0140850045EA947082FB014214
:10470000A40F44EA820483FB0121950F45EA810549
:10471000010E8DF80010010C8DF80110010A8DF8C2
:1047200002108DF803006A4604214FF4747001F002
:1047300085FB4FF0FF3688B9200E8DF80000200C65
:104740008DF80100200A8DF802008DF803406A46BA
:1047500004214FF4757001F071FB08B13046F8BDCB
:10476000280E8DF80000280C8DF80100280A8DF81D
:1047700002008DF803506A4604214FF4767001F070
:104780005DFBF8BD1003002009E3CA022DE9FF41DB
:1047900004463CA004F00303006802903AA00068BD
:1047A00003903AA006683AA0056802A8C15C8DF89B
:1047B0000010C4F3C101425C8DF80120C4F38112E2
:1047C000805C8DF8020003A8C35C8DF80430415C66
:1047D0008DF80510805C8DF806006A46032140F2D2
:1047E000264001F02BFB4FF0FF37E0BB01AA03216D
:1047F00040F22A4001F022FBA8BBCDE9006560072A
:104800000BD59DF8000040F001008DF800009DF8E8
:10481000040040F001008DF80400A0060BD59DF8BF
:10482000010040F001008DF801009DF8050040F006
:1048300001008DF80500E0050BD59DF8020040F061
:1048400001008DF802009DF8060040F001008DF88F
:1048500006006A4603214FF4886001F0EFFA10B9B0
:1048600001AA032100E004E040F2314001F0E6FA41
:1048700018B1384604B0BDE8F08106480481002034
:10488000F8E700004CCD6C000CC92C0036567600C1
:1048900026466600100300204FF47A7290FBF2F077
:1048A00008B54843010E8DF80010010C8DF8011079
:1048B000010A8DF802108DF803006A4604214FF4B6
:1048C000AE7001F0BBFA08BD0521B0FBF1F008B5F0
:1048D000010A8DF800108DF801006A4602214FF49C
:1048E000AD7001F0ABFA08BD0521B0FBF1F008B5E1
:1048F000010A8DF800108DF801006A4602214FF47C
:10490000AC7001F09BFA08BD08B500218DF80010CD
:10491000C10702D030218DF80010810705D59DF820
:10492000001041F00C018DF80010400705D59DF8EE
:10493000000040F003008DF800006A4601214FF4AA
:10494000A47001F07BFA08BD08B560B1042800D955
:104950000420401E8DF800006A46012140F24F10ED
:1049600001F06CFA08BD0120F3E700002DE9FC41DD
:10497000054640074FF0FF367CD0B1F5C86F79D8B7
:104980000846FBF7F2FE3E49FBF714FD074601A877
:1049900000F08EFC9DF80400022806D004280DD0FB
:1049A00008282ED0102865D134E00E213846FBF7B8
:1049B0003FFDFBF7F8FE84B2324907E00D2138468F
:1049C000FBF736FDFBF7EFFE2F4984B23846FBF7C5
:1049D000BFFCFBF7E8FE210A8DF8001080B28DF8CD
:1049E0000140010A8DF802108DF80300E8076C46BB
:1049F00020D0224602214FF4EA7001F01FFAC8BB12
:104A000011E00C213846FBF713FDFBF7CCFE84B216
:104A10001E49DBE70B213846FBF70AFDFBF7C3FE17
:104A200084B21B49D2E7A21C02214FF4927001F01C
:104A300005FAF8B9A8070DD56A4602214FF4EC70C3
:104A400001F0FCF9B0B9A21C02214FF4947001F0FE
:104A5000F5F978B9680710D56A4602214FF4EE706F
:104A600001F0ECF930B9A21C02214FF4967001F06C
:104A7000E5F910B13046BDE8FC810020FBE70000FD
:104A800000004843000040460000C045000040458B
:104A90000000C0440521B0FBF1F008B5010A8DF813
:104AA00000108DF801006A4602214FF4EF7001F00A
:104AB000C5F908BD0521B0FBF1F008B5010A8DF874
:104AC00000108DF801006A4602214FF4ED7001F0EC
:104AD000B5F908BD034909680A685206FCD5486063
:104AE00070470000800200202DE9FE43064626485C
:104AF00001AB042240680D210078FDF717FE10B1CC
:104B00000720BDE8FE839DF804101C2000EAD102B6
:104B10009DF80710DFF87490C1F301131A438DF864
:104B200000209DF80520C1F3810300EAD2021A4358
:104B30008DF801209DF8062001F0030100EAD20063
:104B400008430024124F8DF80200A0466D46285DF0
:104B500010B146F824900AE046F824800DE000BF2A
:104B600056F824003946FBF7F3FB46F82400285D8D
:104B7000401E10F0FF002855F2D1641CE4B2032C53
:104B8000E5D30020BDE70000400000207B14AE3ECE
:104B90001D5A843F2DE9FE4F05460120C14E8DF878
:104BA00000004FF000088DF8018030680C46174671
:104BB000817C70686B4602220078FDF744FE4FF05E
:104BC000FF3A00287AD1C820FCF7A2F98DF80080BE
:104BD00030686B460122C17B70680078FDF733FEB8
:104BE0000028EFD130686B46012241797068007867
:104BF000FDF729FE0028E5D130686B460122817C53
:104C000070680078FDF71FFE0028DBD130686B4626
:104C10000122C17D70680078FDF715FE0028D1D112
:104C200030686B460122017970680078FDF70BFE51
:104C30000028C7D14FF00C098DF8009030686B4602
:104C40000122017970680078FDF7FDFD002835D15B
:104C50000F20FCF75DF9B06A6B460122407A8DF8AF
:104C600000003068817870680078FDF7ECFD00285E
:104C700024D1B06A6B460122007A8DF800003068BA
:104C8000417870680078FDF7DEFD002873D1B06AC6
:104C9000807A0FB140F0E0008DF8000030686B467C
:104CA0000122817970680078FDF7CDFD002862D17E
:104CB0002FB1B06AC07A40F0E00001E04AE018206D
:104CC0008DF8000030686B460122C1797068007869
:104CD000FDF7B9FDF0BB17B1C820FCF719F940206A
:104CE0008DF8000030686B46012201797068007809
:104CF000FDF7A9FD70BB78208DF8000030686B4689
:104D00000122417970680078FDF79DFD10BB3220CB
:104D1000FCF7FEF88DF80080306847466B46417915
:104D2000706801220078FDF78EFD98B931687068CF
:104D3000B046897A00786B460222FDF7F7FC48B945
:104D4000BDF80000AF6040BAB0FBF9F06F60C6B2CA
:104D50002F6000E00FE0A76067602760002739E060
:104D6000D8F80010D8F804006B46C97A00780C22F5
:104D7000FDF7DCFC10B15046BDE8FE8FBDF8000029
:104D8000236840BA02B2BDF80200BDF804101A440C
:104D9000226040BA626800B21044606049BAA068FC
:104DA00009B20844A060BDF806002B6840BA02B200
:104DB000BDF808001A4440BA01B2BDF80A002A60E2
:104DC0006A6840BA11446960A96800B208447F1C4F
:104DD000FFB2A860B742C3D328688322C117090471
:104DE00041EA104100040023FBF7E8F932460023B2
:104DF000FBF7E4F9286068688322C117090441EAD7
:104E0000104100040023FBF7D9F932460023FBF7D9
:104E1000D5F96860A8688322C117090441EA1041E6
:104E200000040023FBF7CAF932460023FBF7C6F95A
:104E3000A86020684FF40065C117090441EA1041D9
:104E400000042A460023FBF7B9F932460023FBF79A
:104E5000B5F9206060682A46C117090441EA10418B
:104E600000040023FBF7AAF932460023FBF7A6F95A
:104E70006060A0682A46C117090441EA1041000495
:104E80000023FBF79BF932460023FBF797F9A0605C
:104E9000002802DDA0F5803001E000F58030A06040
:104EA000002069E7400000202DE9F84F81462E4898
:104EB0008846002540686B46032200780D21FDF7E7
:104EC00035FC10B10720BDE8F88F9DF800000024E4
:104ED00000F01F008DF800009DF801006FF00F0B2F
:104EE00000F01F008DF801009DF802006E4600F0F2
:104EF0001F008DF802004FF0010A00BF59F824107E
:104F000058F82400081A00D54042FBF725FC594602
:104F1000FBF78EFA0746305DC0B1144802E0144931
:104F2000FBF716FA315D491E11F0FF013155F6D13C
:104F300001463846FBF73EFA4FF07E51FBF702FA86
:104F40000C4920F00040884205DC07E00A4838445C
:104F5000B0F1D97F02D90AFA04F00543641C032C8E
:104F6000CCDB2846AFE70000400000200000C8412D
:104F700054E3853F295C0F3E0000E0BE00B50246C9
:104F800000F00DF80346D01C00F009F843EAC00316
:104F9000901D00F004F843EA801080B200BD90F943
:104FA0000010002902DD4FF00000704702DA4FF0D8
:104FB0000400704790F90110002902DD4FF0010054
:104FC000704702DA4FF00500704790F902000028A0
:104FD00002DD4FF00200704702DA4FF00600704722
:104FE0004FF007007047FCF7C5F8FDF7EAFEFDF744
:104FF000C9FCFDF735FDFDF7FDFDFDF74DFCFDF7A7
:1050000053FDFDF787FDFDF7BFFD00F041FFFDF704
:1050100069FC00F04FFFFEE7704700002DE9F0410A
:10502000124C20F00101002594F8240010B100205A
:10503000BDE8F081A07A4FF0FF3668B10840277CC8
:105040002074884200D0354641B1012001F0D8FBE0
:1050500000F0B4FB38B127743046E9E7207D00B199
:10506000012001F0CDFB2846E2E7000040000020CF
:105070002DE9F74F8EB00CA902A8CDE900010BABCA
:1050800003AA09A907A8FFF7DBF918B1012011B09D
:10509000BDE8F08FBDF80800C0057DD50398FBF78B
:1050A0005BFB6FF01D042146FBF7C2F982460498B2
:1050B000FBF752FB2146FBF7BBF981460598FBF74E
:1050C0004BFB2146FBF7B4F980460698FBF744FBFF
:1050D0002146FBF7ADF9054601215046FBF7A8F93B
:1050E00006464146FBF734F904464FF04041484636
:1050F000FBF72EF907462946FBF72AF92146FBF76D
:10510000CFF8FBF764FBFEF743FD4FF0663B5A46D2
:105110003D4BFBF740FAFBF76DFB0E990860012150
:105120004046FBF785F941460090FBF711F904462C
:1051300038464946FBF70CF92146FBF703F94FF0D7
:105140007E51FBF7ADF8FBF742FB07460C463046B5
:105150004946FBF7FDF8064629460098FBF7F8F8A4
:105160003146FBF79DF8FBF732FB3A462346FEF744
:1051700057FF5A46244BFBF70EFAFBF73BFB0F9900
:10518000086029460846FBF7E3F80746414608460B
:10519000FBF7DEF8064600E034E049460846FBF738
:1051A000D7F8044651460846FBF7D2F82146FBF7EC
:1051B00077F83146FBF7C6F83946FBF7C3F8FBF73B
:1051C00006FB06460C4629465046FBF7C1F8054645
:1051D00041464846FBF7BCF82946FBF761F8012138
:1051E000FBF726F9FBF7F3FA32462346FEF718FFE2
:1051F0005A46054BFBF7CFF9FBF7FCFA109908600C
:10520000002044E7022042E766A64C4010B5FDF7B7
:1052100021F900F0F1F808B10A2010BD782000F063
:10522000B1FD10F0FF0F01D0012010BD7820FFF775
:10523000F5FE10F0FF0F01D0022010BD642000F039
:1052400061FD10F0FF0F01D0032010BDFFF7EEF855
:1052500010F0FF0F01D0042010BD1448FFF78EFEA0
:10526000FFF794FA10F0FF0F01D0052010BD40F2B7
:105270007310FEF7B3FF10F0FF0F01D0062010BD32
:105280006420FFF7EBF910F0FF0F01D0072010BDED
:1052900001F076FA08B1082010BD012000F058FC9A
:1052A00010F0FF00F8D0092010BD00006C000020B5
:1052B0000D494A7A42B1012A08D0022A0FD0032AA6
:1052C0000FD04FF0FF307047022200E0042202703E
:1052D000C97C11B11106C90D017000207047082268
:1052E000F5E71022F3E70000400000200F494A7A5A
:1052F00042B1012A09D0022A11D0032A12D04FF05C
:10530000FF3070474FF4804201E041F69C7202800A
:10531000C97C11B1C2F34E010180002070474FF4E7
:105320008052F4E74FF40062F1E7000040000020F3
:105330000B49097A39B1012907D002290AD003297A
:105340000BD0002103E0FA2101E04FF4FA71018053
:10535000002070474FF47A71F9E74FF4FA61F6E7ED
:10536000400000200A49097A41B1012908D00229E8
:105370000AD003290AD04FF0FF307047054900E0FA
:1053800005490160002070470449FAE70449F8E73D
:1053900040000020000003430000834233330342F7
:1053A000333383410C49C97A072913D2DFE801F06E
:1053B0001204060A0C0E1000BC2100E062210180DC
:1053C000002070472A21FAE71421F8E70A21F6E7BE
:1053D0000521F4E70021F2E740000020054991F89B
:1053E000242012B14FF0FF307047C989018000209E
:1053F00070470000400000202DE9FC414C4C80200B
:105400008DF8000020686B460122817C606800787E
:10541000FDF719FA4FF0FF37002832D16420FBF76F
:1054200077FD00258DF8005020686B460122817CB5
:1054300060680078FDF707FA002870D120686B4695
:105440000622817D60680078FDF770F9002866D13A
:105450009DF805009DF80310C007400F01F0010101
:1054600040EA41019DF801004FF0010600F0010003
:10547000014309D0012905D0022915D02DA0FDF73F
:105480003BFE4CE0E67410E020686B460122C178D8
:1054900060680078FDF74AF940BB9DF8000010F005
:1054A0000F0020D0042822D0E574FF2004F80A0F52
:1054B0004FF6FF7104F8020C04F8010C6070A18033
:1054C000A0712072A67026766576E572A572E560F9
:1054D00025616561A576E576A5834FF4FA6000F055
:1054E00073FB18B907E01D48FDF706FE17E01CA086
:1054F000FDF702FEC6E7022000F088FA78B92A20FC
:1055000000F0CAFB58B9322000F0FCFB38B900208B
:10551000FFF784FD18B9002000F0ACFA10B138464E
:10552000BDE8FC81002000F02DFC0020F8E7000021
:1055300040000020556E737570706F727465642042
:10554000736F6674776172652070726F64756374CF
:10555000207265762025642E0A000000E88300088A
:1055600048616C662073656E7369746976697479D5
:10557000207061727420666F756E642E0A000000E0
:105580002DE9FF4FDFF89480064685B098F8250096
:1055900015460F464FF0FF39B0BBAFB3002420E0F3
:1055A000301B102800DD102080B283463A190146D6
:1055B0009246204600F042FC30BB6A4659462046DF
:1055C00000F0D2F800BB50465A466946FAF75BFE37
:1055D00020B16FF0010009B0BDE8F08F04EB0B00C3
:1055E00084B2B442DCD3280A8DF810008DF8115033
:1055F000D8F80000444604AB817ED8F804000222AB
:105600000078FDF720F908B14846E4E7012084F866
:1056100025000898E0840020DDE70000400000201D
:105620002DE9F84305464FF0FF39282844D80727CD
:10563000284C00267DB1012000F0FCFA20208DF8D6
:1056400000004FF00108012D17D0052D18D88DF856
:10565000018005201FE0002000F0ECFA8DF80060CA
:105660008DF8017020686B460222817C60680078AA
:10567000FDF7E9F800BB267529E08DF80160E8E741
:10568000142D04D802208DF801000A2003E0032025
:105690008DF80100142000F0FFFA9DF801006B4620
:1056A00007EB80108DF8010020680222817C606881
:1056B0000078FDF7C8F810B14846BDE8F883082027
:1056C000A072267384F814800020FFF7A7FC002046
:1056D000F3E70000400000202DE9F843214C064686
:1056E000174694F8240089464FF0FF3890B3A07A0B
:1056F00080B320686B460222817A60680078FDF7EB
:1057000015F838BBBDF8000045BAB54202D20020FA
:1057100038701FE060684188B5EB510F11D92168DE
:1057200000786B46497C0122FDF700F890B99DF89E
:105730000000C00605D500F041F86FF00100BDE89B
:10574000F8832068F2B24B46C17A60680078FCF7B3
:10575000EDFF08B14046F2E7B5FBF6F0401E3870A9
:105760000020ECE740000020F8B516000D464FF091
:10577000FF371FD0104CA17AE1B1010A8DF800105B
:10578000C0B28DF80100411960684289914211D878
:10579000216800786B46097E0222FDF754F848B96B
:1057A0002068EAB23346417D60680078FCF7BEFFAE
:1057B000002800D03846F8BD40000020F8B5564C0F
:1057C0004FF0FF36A07A00287DD000258DF80050DC
:1057D00020686B460122C17B60680078FDF733F8D2
:1057E000002870D120686B460122417960680078FA
:1057F000FDF729F8002866D120686B46012201795F
:1058000060680078FDF71FF800285CD194F8240048
:10581000E0B30C208DF8000020686B46012201796E
:1058200060680078FDF70FF8002872D13220FBF78E
:105830006FFBC0208DF80000A07AC00702D0E020E6
:105840008DF8000020686B460122017960680078BD
:10585000FCF7F9FF00285CD1607C18B102208DF8BC
:10586000000001E08DF8005020686B460122C17BEA
:1058700060680078FCF7E7FF28BB8DF800502068CF
:105880006B4601224179606800783EE0FFE7042022
:105890008DF8000020686B4601220179606800786D
:1058A000FCF7D1FF78B9A07C90B9A07AC0070FD0DF
:1058B0005FF060008DF8000020686B4601220179DE
:1058C0006068007800E024E0FCF7BDFF08BB01E061
:1058D0004020EFE73220FBF71BFB607C18B1012072
:1058E0008DF8000001E08DF8005020686B46012221
:1058F000C17B60680078FCF7A6FF50B92068064BB2
:1059000001224179606810330078FCF79CFF002881
:1059100000D03046F8BD0000400000202DE9F047DF
:10592000394C82468AB094F824000F4620B10020FA
:1059300000F00EF9012600E0002607A8FFF7F8FCAA
:1059400006A8FFF7B5FC09A8FFF72CFD08A8FFF78C
:1059500045FD94F80A9094F81080002500223946FD
:105960005046FFF717F910B16D1C022DF6DB022D22
:105970001AD00025012203A96846FFF70BF910B1E0
:105980006D1C022DF6DB022D0ED003A93846FEF762
:10599000BFF8C7B269465046FFF786FA10F0FF0F0E
:1059A0004FF0000502D002E0002503E001250FB909
:1059B00045F00205FF2020726072E0724FF6FF7121
:1059C000E181A072207401202073BDF81C0000F05A
:1059D000FBF89DF8180000F019F8BDF8240000F05D
:1059E0005BF9BDF8200000F08DF9484600F0CAF9D7
:1059F0004046FFF713FB16B1012000F0A9F80AB0EA
:105A00002846BDE8F08700004000002038B5184C5B
:105A10004FF0FF35A17A19B3022806D0042806D02A
:105A200008280ED010281BD10DE0002000E008202F
:105A30008DF80000607A9DF80010B0EBD10F04D013
:105A400005E01020F4E71820F2E7002038BD2068B8
:105A50006B460122C17960680078FCF7F4FE08B15A
:105A6000284638BD9DF80000C0086072EDE70000D0
:105A700040000020F8B5354C0546A07CA84201D175
:105A80000020F8BD31484FF0FF366B46D0E90010DA
:105A90004FF001020979007835B3FCF747FE70BB7F
:105AA0009DF800006B4620F020008DF80000206873
:105AB0000122017960680078FCF7C5FEF8B903207F
:105AC000FBF726FA02208DF8000094F8220078B344
:105AD00082202BE020686B460122017D60680078FF
