:020000040800F2
:1000000030140020750200085D4600080D4100080C
:1000100059460008871B0008F77700080000000019
:100020000000000000000000000000001D52000859
:100030008B1B000800000000994F00081F520008A9
:100040008F0200088F0200088F0200088F0200084C
:100050008F0200088F0200088F0200088F0200083C
:100060008F0200088F0200088F0200088F0200082C
:100070008F0200088F0200088F0200088F0200081C
:100080008F0200088F0200088F0200088F0200080C
:10009000417700088F0200088F0200088F020008D5
:1000A0008F0200088F0200088F0200088F020008EC
:1000B0008F0200088F0200088F0200088F020008DC
:1000C0008F0200088F0200088F0200088F020008CC
:1000D0008F0200088F0200088F0200088F020008BC
:1000E0008F0200088F0200088F02000800F002F85B
:1000F00000F0B0F80AA090E8000C82448344AAF112
:100100000107DA4501D100F0A5F8AFF2090EBAE80F
:100110000F0013F0010F18BFFB1A43F0010318473B
:1001200068830000888300000A444FF0000C10F838
:10013000013B13F0070408BF10F8014B1D1108BF65
:1001400010F8015B641E05D010F8016B641E01F805
:10015000016BF9D113F0080F1EBF10F8014BAD1C55
:100160000C1B09D16D1E58BF01F801CBFAD505E073
:1001700014F8016B01F8016B6D1EF9D59142D6D3CD
:10018000704700000023002400250026103A28BFF5
:1001900078C1FBD8520728BF30C148BF0B607047F9
:1001A0006E2900F0A381702900F0E582662907F02E
:1001B0002F84652907F02C84672907F02984612999
:1001C00007F0288403681B0A28BF41F080016929D1
:1001D00000F05081642900F04D81752900F04A81BA
:1001E0006F2900F07282782900F0B182E92900F0CD
:1001F0000D82E42900F00A82F52900F00782EF2938
:1002000000F06F82F82900F0B0820368DB0928BF94
:1002100041F08001632900F0B387732900F0B887AB
:10022000E32900F0C387F32900F0C8870020704756
:100230001FB501F019F804000020002107F0D2FBDF
:10024000401C60600020002107F0B6FBE0601FBD8D
:1002500010B510BD00F0DAFF1146FFF7E9FF07F017
:100260004DFB01F0B7F803B4FFF7F2FF03BC01F058
:10027000BBF800000948804709480047FEE7FEE751
:10028000FEE7FEE7FEE7FEE7FEE7FEE7FEE7FEE746
:1002900004480549054A064B70470000AB52000868
:1002A000ED000008300E0020301400203010002037
:1002B000301000201CB50C46064B7B44694600906C
:1002C000204600F02CF904460020694600F03AF977
:1002D00020461CBD870200004FF0000200B5134607
:1002E00094469646203922BFA0E80C50A0E80C5056
:1002F000B1F12001BFF4F7AF090728BFA0E80C5007
:1003000048BF0CC05DF804EB890028BF40F8042BFF
:1003100008BF704748BF20F8022B11F0804F18BF6C
:1003200000F8012B704700004FF0013C50F8042BFF
:1003300051F8043B9A4221D1A2EB0C03934313EAF8
:10034000CC1317D150F8042B51F8043B9A4215D125
:10035000A2EB0C03934313EACC130BD150F8042BFC
:1003600051F8043B9A4209D1A2EB0C03934313EAE0
:10037000CC13DBD04FF00000704700BFD01A01BA99
:10038000B1FA81F101F0180122FA01F0CB40C1F17C
:100390002001DBB2C0B2C01A2CFA01F3D11A91438A
:1003A00011EAC311E6D1704770477047704770B5C6
:1003B000044685690068C10601D5302600E0202684
:1003C000C00707D070BDD4E9012130469047206AAC
:1003D000401C20626D1EF6D570BD70B5044685695F
:1003E0000078C00707D170BDD4E9012120209047D3
:1003F000206A401C20626D1EF6D570BD09684A0552
:1004000001D540B27047C905FCD500B270470968F4
:100410004A0501D5C0B27047C905FCD580B2704706
:1004200070B50C460546012A05D02878800600D50F
:10043000EA69002302E0012305E05B1C934202D23B
:10044000E05C0028F9D1A869E618C01AA861286AFA
:10045000184428622846FFF7AAFF04E0D5E90121E5
:1004600014F8010B9047B442F8D32846FFF7B5FFC4
:1004700070BD00002DE9F041064600241068752982
:10048000314616A510D0FFF7B9FF002802DA404226
:1004900013A507E031688A0701D512A502E04907D4
:1004A00004D511A5012401E0FFF7B1FF00210A22C4
:1004B00006F1240709E0B0FBF2FCB0FBF2F302FB0B
:1004C0001C00303078541846491C0028F3D12346CC
:1004D0002A463046BDE8F04100F061BA0000000055
:1004E0002D0000002B0000002000000011680268B1
:1004F000006A530501D508700AE0D30501D50880CC
:1005000006E0130603D5C217C1E9000200E0086047
:100510000120704701694A1C02610878704700B5E4
:100520008FB0CDE901310021059105497944CDE92C
:1005300003101146684600F029F90FB000BD000015
:10054000E5FFFFFF0A6802F8010B0A607047000030
:100550002DE9FF5F15468A460446DFF8AC80F84473
:100560000027D8E900103E46CDE9001010E03AF827
:1005700016106A4602A800F025FE411C07D021781B
:10058000890603D5E269391891420DD80744761CD3
:100590002078800602D5E069B84205DDAE42E6DB90
:1005A0003AF816000028E2D1A069C01BA0612046DD
:1005B000FFF7FDFED8E90010CDE90010002017E09C
:1005C0003AF818106A4602A800F0FCFDB0F1FF3FAF
:1005D00081460BD000250DF1080B05E0D4E901217F
:1005E0001BF8050090476D1C4D45F7D308F101003D
:1005F000B0428046E4DB206A384420622046FFF7A0
:10060000ECFEBDE8FF9F00002A7E00002DE9F041CE
:100610008046D21D22F007020025D2E90002F5290A
:1006200015A614D0011E72F1000106DA0023D0EBEA
:10063000030063EB020211A608E0D8F800108B0754
:1006400001D50FA602E0490701D50EA601251146E6
:10065000002408F1240704E000F05CF930323A5538
:10066000641C50EA0102F7D12B463246214640462F
:10067000BDE8F04100F093B9000000002D0000003B
:100680002B0000002000000030B4002100F1240401
:1006900008E002F00705D208303542EA4372DB0871
:1006A0006554491C52EA0305F3D10468002310A2E3
:1006B000250707D5A40600D421B1C46901230DA2E2
:1006C000641EC46130BC00F06AB910B5044621460E
:1006D0001068FFF79CFE02462046BDE8104000234C
:1006E000D2E7D21D22F00701D1E90023CCE70000B8
:1006F0000000000030000000F0B40D46018809053C
:1007000002D5214C7C4402E01F4C7C440E34002175
:1007100000F1240608E002F00F071209E75D42EA43
:1007200003721B097754491C52EA0307F3D102787C
:100730000023120704D5702D06D009B1022311340D
:100740002246F0BC00F02BB901231034F8E770B555
:1007500004460D4621461068FFF759FE0246294619
:100760002046BDE870400023C6E7D21D22F00703F3
:10077000D3E90023C0E70368126843F02003036055
:100780000823C3610023B7E78C7C00002DE9F05FEC
:10079000894604464FF0000ADFF874B1FB44C0F804
:1007A00020A02046E1688847002874D0252806D07C
:1007B000D4E901219047206A401C2062F1E700261D
:1007C0005F462046E16888472028054607DB312D33
:1007D00005D2781910F8200C08B10643F1E7B007EC
:1007E00001D526F00406C4F81CA00027C4F818A000
:1007F0002A2D09D0284607F079F838B304EB87088A
:10080000303DC8F8185019E059F8041B204604EB95
:1008100087029161E1688847012F054618D1E06998
:10082000002820DA26F020061DE0D8F8180000EB9A
:10083000800005EB40003038C8F818002046E16819
:100840008847054607F052F80028EED1012F0AD05C
:100850002E2D08D12046E16888477F1C0546022FCF
:1008600046F02006C4DBA069002803DA404246F0C7
:100870000106A061F00701D026F010066C2D0BD008
:10088000682D09D04C2D39D06A2D35D0742D35D036
:100890007A2D33D016E038E0E1682F4620468847AD
:1008A000B842054609D16C2F26D04FF48060E1682C
:1008B000064320468847054604E06C2F1AD04FF4C3
:1008C000807006430DB3A5F14100192802D82035E8
:1008D00046F400664A462946204626604E46FFF703
:1008E0005FFC80B101280BD0F61D26F0070000F157
:1008F000080956E74020E4E78020D8E70020D6E743
:1009000006F104094DE7284652E7206ABDE8F09F4A
:100910001C7C000030B5B0F10A024FEA900E71F174
:1009200000034EEA817EB0EB0E0061EB91014FEACD
:10093000101E4EEA017E10EB0E0041EB11114FEA42
:10094000102E4EEA016E10EB0E0041EB11214FEA22
:10095000104E4EEA014E10EB0E0041EB11414018D3
:1009600041F100014FEAD00040EA41704FEAD10165
:1009700010EB80054FEA810444EA907444EB0104D3
:100980006D1944EB0404521BA3414FF0000348BF10
:100990000A3200D530BD401C41F1000130BD2DE9C7
:1009A000F0470D4699469246044600F12408016836
:1009B000880604D5E06921F01001216000E00120E3
:1009C000A84201DD471B00E00027A1697A1902EB6C
:1009D0000900081AA0612078C00602D42046FFF75B
:1009E000E6FC002608E0D4E901211AF80600904749
:1009F000206A401C761C20624E45F4DB2078C0063D
:100A00000AD52046FFF7D3FC06E0D4E901213020C7
:100A10009047206A401C2062381EA7F10107F4DCD1
:100A200007E0D4E9012118F805009047206A401C2E
:100A30002062281EA5F10105F3DC2046FFF7CDFC5E
:100A40002078000602D50220BDE8F0870120FBE7F0
:100A500070472DE9FF4F0C461E464FF0FF378BB015
:100A6000D2E90001DDF860800A908A46C1F30A5598
:100A700005B93D46002108464FF00000BAF1000FCD
:100A800000F4400005DA00EB80004FF4400101EA79
:100A900050004FEA9059B9F1010F00DDB9460A98AC
:100AA00050EA4A000ED044F61050A5F2FF354543F7
:100AB0002F14B8F1000F1ED07542291E1EDDC9F19A
:100AC00000021CE0B8F1010F4FF0000001D030210E
:100AD00003E0F24305E02154401CB042FBDB30460A
:100AE0000022002121540B99C1F80880C1E900209F
:100AF0000FB0BDE8F08FBD1B6D1CDEE74A4600DA83
:100B0000694206A800F0F4FB06AB93E8070003ABCC
:100B100083E8070050460A9900F06DFC8DE8070055
:100B2000A0F500501F3800900398002D0ADD42F216
:100B30001F014A460844002303A90390684600F0B9
:100B4000D6FE09E0A0F500504A461F38002303A94D
:100B50000390684600F0E0FE8DE807000004000CFA
:100B600003D04FF0FF30410800E01046B8F1000F0D
:100B700003D00022009215461EE0751E05D4FFF733
:100B8000C9FE303262556D1EF9D5B34601220843C5
:100B900002D000227F1C04E02078302801D10022FE
:100BA0007F1E002A099784D01DE0112D07DAFFF778
:100BB000B1FE303262556D1C50EA0102F5D1084396
:100BC00002D00098C8B10EE00021681E05E0235C49
:100BD000625C63542254401E491C8142F7DBAB46E1
:100BE000A81B401E0990002004F80B000B98099ADE
:100BF000C0F80880C0E9002B7AE711264FF0000802
:100C000057E72DE9F04F88460446D21D22F0070130
:100C100091B0D1E90001CDE90A0106F037FE0246A4
:100C20000B98C00F01D02D2007E02068810701D567
:100C30002B2002E0202101EAC000032A099001D004
:100C4000072A05DB03464146204600F011FB0BE175
:100C50002078800601D5E06900E00620B8F1650F34
:100C6000814606D0B8F1660F18D0B8F1670F70D181
:100C700031E00020B9F1110F009001DB112301E0F8
:100C800009F101030AAA01A90CA8FFF7E2FEDDE9B8
:100C90000C70002609F10105834647E001204B4610
:100CA00000904FF000470AAA01A90CA8FFF7D1FE57
:100CB000DDE90DB00C995D46002610B909F101007F
:100CC0000D18B9EB050003D4C0F1FF3609F1010599
:100CD000A5EB09002BE0B9F1010F01DA4FF0010992
:100CE0000020B9F1110F0090484601DD112300E00A
:100CF00003460AAA01A90CA8FFF7ABFEDDE90C70B8
:100D00004D4600268346207800070AD4AB4500DA1A
:100D10005D4601A8012D04DD411911F8011C30299F
:100D200007D04F4502DA17F1040F04DA012082469A
:100D30000FE06D1EEEE7002F02DCED1B3E4403E0EA
:100D4000781CA84200DD7D1CB81B00F1010A4FF0A1
:100D500000472078000703D4AA4501DB4FF0FF3A93
:100D60000021B7F1004F0DF143088DF8431024D056
:100D700002202B23002F01DA7F422D230A21021E9D
:100D8000A0F1010000DC5FB197FBF1FC97FBF1F2F1
:100D900001FB1C7C17460CF1300C08F801CDEEE786
:100DA000A8F1010003702188090501D5452100E063
:100DB0006521A0F1010800F8011C09980FA9A1EB19
:100DC0000807FF1D00B10120411901EBEA70A1697C
:100DD0003844081A401EA0612078C00602D420467C
:100DE000FFF7E5FA099828B1D4E901219047206A74
:100DF000401C20622078C00622D52046FFF7D7FA93
:100E00001EE0002E04DBB34502DD01A8805D00E09A
:100E10003020D4E901219047206A401C2062761CD2
:100E2000AAF101005FEA000A0AD100F01DFAC068C9
:100E30000168405CD4E901219047206A401C20628F
:100E4000281EA5F10105DCDC07E0D4E9012118F832
:100E5000010B9047206A401C2062381EA7F1010751
:100E6000F3DC2046FFF7B9FA032011B041E6000099
:100E70002DE9F04F04460D46D21D22F0070089B03F
:100E8000D0E900974846394606F000FD0246F80FC3
:100E900001D02D2307E02068810701D52B2302E034
:100EA000202101EAC0038DF820300BB1012000E0C1
:100EB0000020032A824601D0072A04DB2946204667
:100EC00000F0D6F93FE12078800601D40D2500E03E
:100ED000E569C7F30A560D2D49DA00214FEA175B81
:100EE00008464FF00000002F00F4400007DA00EB46
:100EF00080004FF4400100EBD07001EA60008115E2
:100F0000012901DD4FF0FF3100224FEA850CBCF1D1
:100F1000180F06D31346ACF118004FF08052C240B0
:100F200003E04FF4801323FA0CF30CF10C0CBCF12A
:100F3000200F04D3ACF1200C09FA0CF001E007FA01
:100F40000CF000294FF0004801DD18B90FE00ED178
:100F500040450CD319EB02095F4121B9404502D14C
:100F60009F4329EA0209BBEB175F00D0761C20885B
:100F7000000502D57B48784402E07A487844193865
:100F800008AA302302F80A30037C0AF10101002E7E
:100F90000AF1020A53546A4602DC4FF0300101E0C4
:100FA0004FF031014FF001088DF8001002D0A6F289
:100FB000FF3603E059EA470100D06B4E002D02DCFA
:100FC0002178090704D54FF002082E218DF8011071
:100FD000C44600210BE0C7F303433F01C35C491C37
:100FE0006D1E02F80830052908F1010801DA002D0C
:100FF000F1DC00210CE000EB1973491C1B786D1E1D
:10100000082902F808304FEA091908F1010801DA45
:10101000002DF0DC21688B0602D516E0A8F101084E
:10102000E04505DD02EB080313F8013C302BF5D059
:10103000B8F1000F09DD02EB080313F8013C2E2B79
:1010400003D1090701D4A8F10108002D05DD3E21D7
:1010500002F808106D1E08F10108407C002E02F80D
:10106000080008F1010804DA2D20764202F8080091
:1010700002E02B2002F808000A214FF47A70864221
:1010800008F101080BDB96FBF0F3303302F808306F
:1010900096FBF0F308F1010800FB136601E0642EF3
:1010A0000CDB642096FBF0F3303302F8083096FB3B
:1010B000F0F308F1010800FB136601E00A2E06DBDD
:1010C00096FBF1F0303002F8080008F1010896FBB9
:1010D000F1F001FB1060303002F80800A16908F15E
:1010E000010808EB050202EB0A00081AA06120784B
:1010F000C00602D42046FFF75AF9216A08AE01EB78
:101100000A00206204E0D4E9012116F8010B90479F
:10111000BAF1010AF7D22078C00602D52046FFF7BF
:1011200046F96E4609E016F8010B3E280FD0D4E9C7
:1011300001219047206A401C2062B8F10108F2D2D8
:101140002046FFF74AF909B00320BDE8F08F206A76
:101150002844206203E0D4E90121302090476D1E2D
:10116000EBD3F8E76674000002FCFFFF10B543699B
:1011700013B1AFF3008001E0FFF752F9012010BD79
:10118000127800F124010A7000224A700122EDE772
:1011900011684FF0FF32E9E710B5436913B1AFF3BF
:1011A000008001E0FFF7D4F9012010BD128800F1A2
:1011B000240182840022C2840122EDE711684FF0ED
:1011C000FF32E9E770B516460C46054600F044F8D4
:1011D000036893F80101012806D0FF2C0FD8185D91
:1011E00068B101202C7070BDD3F80701324621464A
:1011F00003F2071303442846BDE8704018474FF038
:10120000FF3070BD00487047D00D00207546FFF7D5
:10121000F9FFAE4605006946534620F007008546B3
:1012200018B020B5FFF734F8BDE820404FF00006B5
:101230004FF000074FF000084FF0000B21F00701BE
:10124000AC46ACE8C009ACE8C009ACE8C009ACE801
:10125000C0098D467047000010B500F005F8001D6C
:1012600010BD00BF8167000000487047F00D0020EE
:101270002DE9F0411F46044603260168072A01F4C0
:10128000006004DB08B116A505E016A503E008B16F
:1012900015A500E015A521F010002060A069C01E72
:1012A000A0610FB1401EA0612046FFF780F84FB14A
:1012B000D4E9012138469047206A401C2062C01CB6
:1012C000206206E0206AFAE7D4E9012115F8010B53
:1012D0009047761EF8D22046FFF77FF8BDE8F081F0
:1012E0004E414E006E616E00494E4600696E6600CA
:1012F0002DE9F047814616468AB0354878440DC836
:101300008DE80D0032487844801C03AC0DC884E899
:101310000D0041F69B300844372190FBF1F290FB21
:10132000F1F5A5F1800501FB12041B3C02D56442D6
:10133000012000E00020DFF898A080460027FA4452
:10134000AAF1BE0A0EE0E0070AD03246684607EB73
:10135000470101230AEB810100F0DEFA8DE8070066
:1013600064107F1C002CEED1194F7F44AE3F19E072
:10137000E80715D007EB04100DF1180A90E80E00ED
:101380008AE80E00C068F04201D1981908903246F0
:10139000012306A903A800F0BFFA03AB83E8070006
:1013A0006D10641C002DE3D14FF0010332466946F5
:1013B000B8F1000F03A802D000F099FA01E000F0A4
:1013C000ABFAC9E90001C9F808200AB0BDE8F08706
:1013D0007071000010B50446AFF300802046BDE8F0
:1013E0001040FEF740BF000001491820ABBEFEE7E9
:1013F0002600020070475FEA400C08BF91F0000F22
:101400004FEA8C234FEAC12243EA51514FEA1C5064
:1014100018BF00F5F0404FEA300018BF41F000411E
:101420005FEA6C5C00F02980BCF1FF3F08BF40F030
:1014300080407047130C06BF12044FF0100C4FF0A1
:10144000000C130E04BF12020CF1080C130F04BFA2
:1014500012010CF1040C930F04BF92000CF1020C6A
:10146000D30F04BF52000CF1010C11464FF00002E3
:10147000A0F11F00A0EB0C00704711F0004F08BF57
:10148000704731F000413FF4D5AF0B0C06BF0904A3
:101490004FF0100C4FF0000C0B0E04BF09020CF1C2
:1014A000080C0B0F04BF09010CF1040C8B0F04BFD7
:1014B00089000CF1020CCB0F04BF49000CF1010CA8
:1014C000CCF12003A0EB0C0022FA03F302FA0CF299
:1014D00041EA030100F10100704720F07F4C80EAEF
:1014E000030023F07F47ACEB070303F57C5300F0C8
:1014F000004003F1FF032DE980494FEA154B09B481
:101500004FEA144325EA0B4E24EA03480FF204265F
:1015100006EB132749083E785FEA320203FB0667B1
:10152000C7F5000707FB06F64FEA54374FEAD646E1
:1015300006F1020607FB066CCCF1005C4FEA1C4783
:101540002CEA074C07FB06F40CFB06F504EB1546EA
:101550004FEA961634BF00204FF000404FEAD137D3
:1015600006FB07FC4FEA1C4C0CFB0BF7D21B03FBE2
:101570000CF761EB07010CFB0EF7B0EB074072EBC9
:1015800017420CFB08F734BFA2EB0742B2EB07424D
:1015900061EB17414FEA0C444FEA910706FB07FC49
:1015A0004FEA1C4C0CFB0BF7B0EBC74072EB573209
:1015B00003FB0CF734BFA2EBC742B2EBC74261EBAF
:1015C00057310CFB0EF7B0EBC70072EB57720CFBF8
:1015D00008F734BFA2EBC702B2EBC70261EB577149
:1015E000039F4FEA816141EA921104EBCC044FEA78
:1015F000D1374FEA826206FB07FC42EA90124FEABB
:1016000080604FEA1C4C0CFB0BF7D21B03FB0CF762
:1016100061EB07010CFB0EF7B0EB074072EB1742D2
:101620000CFB08F734BFA2EB0742B2EB074261EBB9
:1016300017414FEA8C554FEA910704EB9C2406FBB7
:1016400007FC4FEA1C4C0CFB0BF7B0EBC74072EBEE
:10165000573203FB0CF734BFA2EBC742B2EBC742D1
:1016600061EB57310CFB0EF7B0EBC70072EB577212
:101670000CFB08F734BFA2EBC702B2EBC70261EB69
:10168000577115EB4C254FEA816141EA92114FEAFF
:1016900082624FEAD13742EA901206FB07FC44F11E
:1016A00000044FEA80604FEA1C4C0CFB0BF7D21B86
:1016B00003FB0CF761EB07010CFB0EF7B0EB0740E7
:1016C00072EB17420CFB08F734BFA2EB0742B2EBF8
:1016D000074261EB174115EB1C154FEA813141EAD6
:1016E00092414FEA823242EA90424FEA80304FEA1A
:1016F0000C7644F1000448EA03434EEA0B484FF0ED
:10170000000EB2EB080C71EB030724BF62463946AA
:101710004EEB0E0E4FF0000B0018524149414BEBBF
:101720000B0BB2EB080C71EB03077BF1000B24BF32
:10173000624639464EEB0E0E4FF0000B0018524138
:1017400049414BEB0B0BB2EB080C71EB03077BF140
:10175000000B24BF624639464EEB0E0E51EA0207DB
:1017600018BF46F0010616EB0E7655F1000254F153
:10177000000103D5BDE88901BDE80088BDE8890105
:10178000BDE80048B619524141EB0101A3F1010344
:10179000704780807F7E7D7C7B7A797877767675DE
:1017A0007473727171706F6E6E6D6C6C6B6A6A6956
:1017B0006868676666656464636362616160605FF0
:1017C0005F5E5E5D5D5C5C5B5B5A5A595958585769
:1017D00057565655555554545353525252515150D1
:1017E00050504F4F4F4E4E4D4D4D4C4C4C4B4B4B24
:1017F0004A4A4A494949484848474747474646466A
:1018000045454544444444434343434242424241A4
:101810004141002B9C4630D477002BD01CB54FEAB9
:10182000370703B44FF010004FF01001BAF1000F6A
:1018300006D0BCF1000FDCBF40F0080040F008010A
:101840004FF000000FBCBDE810400BF1010BBBF1E5
:10185000010F08BF5FEA170722BF12F1010211F161
:1018600001014FF0004143F1000300F0004043EA62
:1018700000007047F9D35708D0E746EA064613F14F
:10188000400F4FEA16461FDD13F1200FDFBF16434E
:101890000A46002120335B42BED0C3F1200746EA4E
:1018A000064602FA07F74FEA164646EA0706C3F16C
:1018B000200722FA03F201FA07F721FA03F14FF0A9
:1018C000000342EA0702A7E746EA020646EA06469E
:1018D0004FEA164646EA0106BCBF46EA0646360C03
:1018E0004FF000034FF000024FF0000194E72DE9A4
:1018F000804C9A46934670B491E8380007C831EAA4
:10190000400C48BF34EA430C03D5FFF7E6FDFFF770
:1019100080FFF0BCBDE8008C2DE9804C9A469346D0
:1019200070B491E8380007C810F0804F08BF13F07A
:10193000804F03D100F005F8FFF76BFFF0BCBDE866
:10194000008C20F07F4780EA030023F07F4C07EBF8
:101950000C03A3F57C5300F00040A3F1FE0392F0CA
:10196000000F00F0B38095F0000F00F077802DE9B4
:1019700001494FEA11404FEA144621EA004800FBB2
:1019800006FC24EA064708FB06F607FB08F800FBFE
:1019900007F718EB06484CEB164C4FEA124B18EBC6
:1019A00007484FEA15464CEB174022EA0B4E0BFB5B
:1019B00006FC25EA06470EFB06F607FB0EFE0BFBB0
:1019C00007F71EEB064E4CEB164C4FF000061EEBD5
:1019D000074E4CEB174B18EB0B0840F1000018EBCF
:1019E0000E0B58EB000840F100008F1A4FF0000179
:1019F0003CBFC943661B14BFB5EB040C00213CBFC0
:101A0000C943F61B4FEA17444EEA8E0E27EA0445F7
:101A10004FEA1C4704FB07622CEA074C05FB07F75B
:101A20000CFB05F604FB0CFC16EB074642EB1742D9
:101A300016EB0C4642EB1C421BEB060658EB02026F
:101A4000414146EA9E0601D5BDE80189B6195241D9
:101A500041EB0101A3F10103BDE801894FEA1445FF
:101A60004FEA114724EA054621EA074C05FB07F433
:101A700006FB07F70CFB06F105FB0CFC11EB07411D
:101A800044EB17444FEA124711EB0C4144EB1C4462
:101A900022EA074C05FB07F206FB07F70CFB06F6EC
:101AA00005FB0CFC16EB074642EB174216EB0C4607
:101AB00042EB1C456A1854F1000148BF7047B61943
:101AC000524141EB0101A3F10103704795F0000F72
:101AD00037D04FEA11424FEA144721EA024624EA7E
:101AE000074C02FB07F106FB07F70CFB06F402FBB1
:101AF0000CFC14EB074441EB17414FEA154714EB7C
:101B00000C4441EB1C4125EA074C02FB07F506FBA0
:101B100007F70CFB06F602FB0CFC16EB074645EB41
:101B2000174516EB0C4645EB1C42121951F100010A
:101B300048BF7047B619524141EB0101A3F10103BF
:101B400070474FEA14454FEA114724EA054621EA57
:101B5000074C05FB07F106FB07F70CFB06F24FF0FD
:101B6000000605FB0CFC12EB074241EB174112EBA0
:101B70000C4251EB1C4148BF7047921841EB0101E8
:101B8000A3F10103704700BFFEE7704772B600BFC4
:101B9000FEE7000070B50A480468001D0568001DD6
:101BA0000668344454B108220649204602F082FCFB
:101BB000042204491031284602F07CFC70BD00006C
:101BC000E8F7FF1F3600002070B5044600F0AEF9BC
:101BD00006462546681C10B104480078054400BF3D
:101BE00000F0A4F9801BA842FAD370BD5800002071
:101BF0002DE9F8470346002294466EE14FF00108B4
:101C000008FA02F4D1F8008008EA0400A0427DD16D
:101C1000DFF8DCA2D1F80480A8EB0A09D0453AD05D
:101C200014DCB8F1030F50D009DCB8F1000F31D04B
:101C3000B8F1010F1CD0B8F1020F49D120E0B8F182
:101C4000110F18D0B8F1120F42D11EE0B9F5881F5C
:101C500025D006DCB9F5803F20D0B9F5801F37D1FB
:101C60001AE0B9F5001F18D0B9F5041F30D117E0FC
:101C7000D1F80CC02DE0D1F80C8008F1040C28E05C
:101C8000D1F80C8008F1080C23E0D1F80C8008F1A1
:101C90000C0C1EE000BF00BF00BF00BF00BF00BFB4
:101CA000D1F80880B8F1000F02D14FF0040C0BE01E
:101CB000D1F80880B8F1010F03D14FF0080C1C6176
:101CC00002E04FF0080C5C6103E04FF0000C00E014
:101CD00000BF00BFFF2801D8984601E003F10408C7
:101CE0004646FF2802D84FEA820803E0A2F108081E
:101CF0004FEA88084746D6F800804FF00F0909FAE6
:101D000007F928EA09080CFA07F900E088E048EA30
:101D10000908C6F80080D1F8048008F08058B8F1AE
:101D2000805F7DD100BFDFF8CC81D8F8188048F003
:101D30000108DFF8C091C9F81880C846D8F81880A3
:101D400008F00108CDF8008000BF00BF4FEAB938A5
:101D50004FEA920958F829504FEA82784FEA1879E9
:101D60004FF00F0808FA09F825EA0805DFF888811E
:101D7000434502D14FF0000816E0DFF8808143456B
:101D800002D14FF001080FE0DFF87481434502D122
:101D90004FF0020808E0DFF86C81434502D14FF0B4
:101DA000030801E04FF004084FEA82794FEA1979FD
:101DB00008FA09F848EA0505DFF84C814FEA92096C
:101DC00048F82950D1F8048008F48018B8F5801F2D
:101DD0000AD1DFF83881D8F8008048EA0008DFF837
:101DE0002C91C9F8008009E0DFF82081D8F8008044
:101DF00028EA0008DFF81491C9F80080D1F80480BF
:101E000008F40018B8F5001F10D1DFF8008108F1C0
:101E10000408D8F8008048EA0008DFF8F09000E0F5
:101E20005AE009F10409C9F800800DE0DFF8DC8010
:101E300008F10408D8F8008028EA0008DFF8CC9000
:101E400009F10409C9F80080D1F8048008F40038C9
:101E5000B8F5003F0ED1DFF8B480A8F10408D8F837
:101E6000008048EA0008DFF8A490A9F10409C9F845
:101E700000800DE0DFF89480A8F10408D8F8008015
:101E800028EA0008DFF88490A9F10409C9F8008065
:101E9000D1F8048008F48038B8F5803F0ED1DFF81F
:101EA0006C80A8F10808D8F8008048EA0008DFF83C
:101EB0005C90A9F10809C9F800800DE0DFF84C80BA
:101EC000A8F10808D8F8008028EA0008DFF83C905C
:101ED000A9F10809C9F80080521CD1F8008028FA3D
:101EE00002F8B8F1000F7FF489AEBDE8F887000072
:101EF000000011100010024000080140000C0140D9
:101F00000010014000140140080001400804014095
:101F1000024693680B400BB1012000E0002070479F
:101F20000AB1016101E00B040361704701480068D8
:101F3000704700005000002070B504460CB9012025
:101F400070BD94F83D0028B9002084F83C0020467C
:101F500000F08CF9242084F83D002068006820F00F
:101F60000100216808602068006840F40040216892
:101F700008602068006820F400402168086001F0D3
:101F8000C7FA05465C496068884206D85B488542C6
:101F900001D2012007E0002005E05948854201D226
:101FA000012000E00020012800D1C9E75548B5FB19
:101FB000F0F62068406820F03F0030432168486018
:101FC0004D496068884201D8701C07E04FF4967054
:101FD00070434FF47A71B0FBF1F0401C2168096A3C
:101FE00021F03F0108432168086243496068884244
:101FF00014D8681E61684900B0FBF1F0401CC0F3C2
:102000000B00042801D204203DE0681E61684900ED
:10201000B0FBF1F0401CC0F30B0034E0A06838B90D
:10202000681E616801EB4101B0FBF1F0401C0AE061
:10203000681E616801EBC10202EB0111B0FBF1F017
:10204000401C40F48040C0F30B0008B901201AE0A6
:10205000A06848B9681E616801EB4101B0FBF1F06E
:10206000401CC0F30B000CE0681E616801EBC1026C
:1020700002EB0111B0FBF1F0401CC0F30B0040F487
:10208000804040F400402168C9694CF6FF729143DA
:1020900008432168C861D4E9070108432168096839
:1020A00021F0C001084321680860D4E90310084307
:1020B0002168896848F2FF329143084321688860AB
:1020C000D4E9050108432168C96821F0FF010843EC
:1020D0002168C8602068006840F00100216808603D
:1020E00000202064202084F83D000020206384F834
:1020F0003E0000BF24E70000A086010080841E008F
:1021000000093D0040420F002DE9FC5F04460F46E8
:1021100090469946DDE90CAB0E9EFFF707FF05469A
:1021200094F83D0020287DD1192301224D492046F5
:10213000009502F0B0F810B10220BDE8FC9F00BF8E
:1021400094F83C00012801D10220F6E7012084F830
:102150003C0000BF2068006800F0010028B920683A
:10216000006840F00100216808602068006820F4E1
:10217000006021680860212084F83D00402084F838
:102180003E0000202064C4F824A0A4F82AB0608D8A
:1021900020853548E0624B46424639462046CDE927
:1021A000006501F0D5FF08B10120C6E731E02A46FD
:1021B0003146204602F04BF950B1206C042805D17D
:1021C0002068006840F40070216808600120B4E7CE
:1021D000606A007821680861606A401C6062208D36
:1021E000401E2085608D401E608520684069C0F3D8
:1021F000800070B1208D60B1606A0078216808614C
:10220000606A401C6062208D401E2085608D401EEB
:102210006085208D0028CAD12A463146204602F02A
:1022200007F800E01CE050B1206C042805D12068BC
:10223000006840F400702168086001207DE7206894
:10224000006840F4007021680860202084F83D0098
:10225000002084F83E0000BF84F83C0000BF6CE71B
:1022600002206AE7020010000000FFFF10B586B0F0
:1022700004460020029003900490059015492068C0
:10228000884225D100BF1448806940F008001249F7
:1022900088610846806900F00800019000BF00BF17
:1022A000C0200290122003900320059002A90B4841
:1022B000FFF79EFC00BF0848C06940F400100649C3
:1022C000C8610846C06900F40010019000BF00BF5B
:1022D00006B010BD0054004000100240000C014048
:1022E00003480068034909780844014908607047B9
:1022F000500000205800002010B50848006840F049
:10230000100006490860032000F0A8F80F2000F034
:1023100007F800F02BF8002010BD0000002002405C
:1023200070B504460E4800784FF47A71B1FBF0F0B6
:102330000C490968B1FBF0F5284601F0CDFE08B163
:10234000012070BD102C07D200222146501E00F043
:1023500047F80548046001E00120F2E70020F0E7BB
:10236000580000205C0000205400002008B500BF89
:102370001148806940F001000F4988610846806972
:1023800000F00100009000BF00BF00BF0846C06918
:1023900040F08050C8610846C06900F0805000904D
:1023A00000BF00BF00BF0549486820F0E06040F072
:1023B0000070486000BF08BD0010024000000140EE
:1023C00001460846002809DB00F01F0301229A405D
:1023D00043099B0003F1E023C3F8002100BF7047CD
:1023E0002DE9F05F80460D461646002705F062FA9B
:1023F000074639462A46334601F00700C0F1070A6E
:10240000BAF1040F02D94FF0040A01E0C0F1070A43
:10241000D14600F1040ABAF1070F02D24FF0000AC8
:1024200001E0A0F1030AD4464FF0010A0AFA09FAC2
:10243000AAF1010A0AEA020A0AFA0CFA4FF0010BA1
:102440000BFA0CFBABF1010B0BEA030B4AEA0B0492
:102450002146404605F036FABDE8F09F00BF00F087
:102460000702064B19684FF6FF031940044B0B4354
:1024700043EA0221014B196000BF70470CED00E0F8
:102480000000FA0570B505460C4604F0800080286F
:1024900008D104F0070000EB800605F1100000EB06
:1024A000C60105E004EB840605F5A87000EBC60143
:1024B0001AB900200873CB8004E0012008730B8157
:1024C000180C4881002070BD704770B504460D4659
:1024D00005EB850304F1100101EBC3014A692946AC
:1024E000D4F8D40203F0E1FA70BD70B504460D468D
:1024F00005EB850304F5A87101EBC3014A69294680
:10250000D4F8D40203F051FB70BD70B504460E46FA
:1025100006F0800080280AD106F0070000EB800159
:1025200004F1100000EBC1050120687009E006F01D
:10253000070000EB800104F5A87000EBC105002046
:10254000687006F00700287000BF94F89002012818
:1025500001D1022070BD012084F8900200BF2946FD
:10256000206804F0C5F900BF002084F8900200BF85
:1025700000BFEFE770B504460E4606F00F00217964
:10258000884201D9012070BD06F0800080280AD160
:1025900006F0070000EB800104F1100000EBC1051C
:1025A0000120687009E006F0070000EB800104F5E7
:1025B000A87000EBC105002068700020A87006F02C
:1025C0000700287000BF94F89002012801D1022072
:1025D000D9E7012084F8900200BF2946206804F062
:1025E000E3FA00BF002084F8900200BF00BFCAE7F2
:1025F0002DE9F04105460C46174607F480400028B7
:1026000050D02868B0F85010207801EBC000801C32
:10261000296801F5806131F81000C0F30906A0694E
:10262000B04203D3A069801BA06101E00020A0613B
:10263000A069A8B900BF22785200296831F81210A9
:102640004BF68F7201EA020080F4005040F4004122
:1026500041F0800123785B002A6822F8131000BF44
:1026600007F04000A8B100BF00BF227852002968DF
:1026700031F8121048F68F7201EA020040F400416E
:1026800041F0C00123785B002A6822F8131000BFD4
:1026900000BF002E55D0228961693346286805F0B5
:1026A0005BF84EE02868B0F85010207801EBC000CD
:1026B000801D296801F5806131F81000C0F309061A
:1026C000A069B04203D3A069801BA06101E0002093
:1026D000A061A069A8B900BF22785200296831F82A
:1026E00012104BF68F7201EA020080F4005040F4A1
:1026F000004141F0800123785B002A6822F8131022
:1027000000BF07F04000A8B900BF00BF2278520008
:10271000296831F8121048F68F7201EA020040F47D
:10272000004141F0C00123785B002A6822F81310B1
:1027300000BF00BF2EB1628961693346286805F089
:102740000BF83046BDE8F0812DE9F04705460C4610
:10275000904608F0400000287ED02868B0F850105D
:10276000207801EBC000801C296801F5806131F8F8
:102770001000C0F30907A069B84203D9A069C01BC3
:10278000A06101E00020A061A06900287ED100BF07
:102790006078C0B900BF29682A68B2F85020114497
:1027A0002278022303EBC20201F5806303EB4200AF
:1027B00000BF0288C2F309020280028842F400428C
:1027C000028000BF13E06078012810D100BF2868A4
:1027D0002A68B2F8502010442278022303EBC20288
:1027E00000F5806303EB420100220A8000BF00BFB6
:1027F00000BF29686078F8B900BF2B68D5F800C021
:10280000BCF850C0634494F800C04FF0060909EBCF
:10281000CC0C03F5806909EB4C0000BFB0F800C098
:10282000CCF3090CA0F800C0B0F800C04CF4004C88
:10283000A0F800C000BF12E0607801280FD128681E
:10284000B0F8500001442078062303EBC00001F5E6
:10285000806303EB400200E0B7E00020108000BF7F
:1028600021782846FFF731FE08F48040002816D072
:1028700000BF00BF22785200296831F8121048F6D4
:102880008F7201EA020040F4004100E008E041F4E8
:10289000814123785B002A6822F8131000BFD7E13A
:1028A00008F48040A8B100BF00BF22785200296818
:1028B00031F8121048F68F7201EA020040F400412C
:1028C00041F4814123785B002A6822F8131000BF8D
:1028D00000BF94F824000128E1D1606938446061A8
:1028E000E0693844E0612169206A884204D326699E
:1028F000206A801B20620BE0206A20B93E4600203F
:1029000084F8240004E0002084F82400266A206271
:1029100000BF6078E8BB00BF2A682968B1F8501092
:102920000A442178022303EBC10102F5806303EB23
:102930004101084600BF0388C3F3090303803E2E0C
:1029400010D900BF710906F01F0303B9491E03889F
:102950004FF4004C4CEA812C1FFA8CFC43EA0C0328
:10296000038014E026B9038843F4004303800EE09B
:1029700000BF710806F0010303B1491C03884FF63C
:10298000FF7C0CEA812C43EA0C03038000BF00BFEC
:1029900013E0FFE7607801280FD100BF28682A689C
:1029A000B2F8502010442278022303EBC20200F553
:1029B000806303EB42010E8000BF00BFB3B22289E7
:1029C0006169286804F0F7FE42E12868B0F8501009
:1029D000207801EBC000801D296801F5806131F885
:1029E0001000C0F30907A069B84203D3A069C01B57
:1029F000A06101E00020A061A06900287ED100BF95
:102A00006078C0B900BF29682A68B2F85020114424
:102A10002278022303EBC20201F5806303EB42003C
:102A200000BF0288C2F309020280028842F4004219
:102A3000028000BF13E06078012810D100BF286831
:102A40002A68B2F8502010442278022303EBC20215
:102A500000F5806303EB420100220A8000BF00BF43
:102A600000BF29686078F8B900BF2B68D5F800C0AE
:102A7000BCF850C0634494F800C04FF0060909EB5D
:102A8000CC0C03F5806909EB4C0000BFB0F800C026
:102A9000CCF3090CA0F800C0B0F800C04CF4004C16
:102AA000A0F800C000BF10E0607801280DD12868B0
:102AB000B0F8500001442078062303EBC00001F574
:102AC000806303EB40020020108000BF217828467D
:102AD000FFF7FBFC08F48040002816D100BF00BFC0
:102AE00022785200296831F8121048F68F7201EAF4
:102AF000020040F4004141F4814100E006E0237807
:102B00005B002A6822F8131000BFA1E008F480409F
:102B1000A8B900BF00BF22785200296831F812100E
:102B200048F68F7201EA020040F4004141F481410D
:102B300023785B002A6822F8131000BF00BF94F8C6
:102B4000240001287ED1606938446061E06938441E
:102B5000E0612169206A884204D32669206A801BCB
:102B600020620BE0206A20B93E46002084F8240051
:102B700004E0266A0020206284F8240000BF2A684E
:102B8000607870BB00BFD5F800C02968B1F850105C
:102B90008C4421784FF0060909EBC1010CF58069DE
:102BA00009EB4101084600BFB0F80090C9F30909DC
:102BB000A0F800903E2E15D900BF710906F01F093C
:102BC000B9F1000F00D1491EB0F800904FF4004A4F
:102BD0004AEA812A1FFA8AFA49EA0A09A0F800900B
:102BE0001BE01CE036B9B0F8009049F40049A0F8A9
:102BF000009012E000BF710806F00109B9F1000F62
:102C000000D0491CB0F800904FF6FF7A0AEA812AFA
:102C100049EA0A09A0F8009000BF00BF0FE0607801
:102C200001280CD12868B0F8500002442078062111
:102C300001EBC00002F5806101EB40031E8000BF84
:102C4000B3B200E004E062896169286804F0B3FD72
:102C500000BF22785200296831F8121048F6BF727E
:102C600001EA020080F0100080F0200040F40041F2
:102C700041F0800223785B00296821F8132000BF0F
:102C80000020BDE8F0872DE9F04705460E46904646
:102C90001F464FF0000906F0800080280AD106F098
:102CA000070000EB800105F1100000EBC1040120DA
:102CB000607009E006F0070000EB800105F5A870E0
:102CC00000EBC1040020607006F007002070C4F81B
:102CD0001080E770022F01D10020207100BF95F80D
:102CE0009002012802D10220BDE8F087012085F87A
:102CF000900200BF2146286803F09EFB00BF002021
:102D000085F8900200BF4846EEE72DE9F041054600
:102D10000E461746984606F0070000EB800105F5C1
:102D2000A87000EBC1046761C4F818800020E0615E
:102D3000607006F0070020702146286803F0CFFF7E
:102D40000020BDE8F08170B504460D4605F007008F
:102D50002179884201D9012070BD05F080008028CA
:102D60000AD105F0070000EB800104F1100000EB30
:102D7000C1060120707007E005EB850104F5A8701D
:102D800000EBC106002070700120B07005F0070054
:102D9000307000BF94F89002012801D10220DBE7D7
:102DA000012084F8900200BF3146206803F069FFDB
:102DB00005F0070020B904F52671206803F0F1FE44
:102DC00000BF002084F8900200BF00BFC4E72DE9D7
:102DD000F04105460E4690461F4606F0070000EB00
:102DE000800105F1100000EBC104C4F81480A76154
:102DF000012084F8240027620020E0610120607037
:102E000006F0070020702146286803F068FF0020C4
:102E1000BDE8F0817FB50446206804F099FC0646C1
:102E200006F40040B0F5004F03D1204601F03EFE0D
:102E30007FBD06F48060B0F5806F10D12068B0F8D7
:102E400044004FF6FF3108402168A1F844002046B5
:102E500000F086F90021204600F0A2F9E8E706F428
:102E60008040B0F5804F09D12068B0F844004BF69F
:102E7000FF7108402168A1F84400D9E706F400502A
:102E8000B0F5005F09D12068B0F844004DF6FF713D
:102E900008402168A1F84400CAE706F48050B0F564
:102EA000805F1ED12068B0F840004FF6FB710840EB
:102EB0002168A1F840002068B0F840004FF6F77193
:102EC00008402168A1F84000204600F05BF9206826
:102ED000B0F844004EF6FF7108402168A1F84400A4
:102EE000A6E706F40060B0F5006F56D1002507E0B4
:102EF0006900206830F811002DF81500681CC5B273
:102F0000082DF5D32068B0F8400040F0010021689A
:102F1000A1F840002068B0F840004FF6FE7108406C
:102F20002168A1F8400000BF2068B0F8440000F418
:102F300080600028F8D02068B0F844004FF6FF31D8
:102F400008402168A1F84400002507E03DF815007D
:102F50006A00216821F81200681CC5B2082DF5D35B
:102F60002068B0F8400040F008002168A1F8400057
:102F70002068B0F844004FF2FF7108402168A1F8C2
:102F800044002068B0F8400040F004002168A1F837
:102F90004000204600F046F94AE706F40070B0F51C
:102FA000007F0CD12068B0F844004FF6FF51084074
:102FB0002168A1F84400204600F0EBF838E706F459
:102FC0008070B0F5807F09D12068B0F844004FF6DA
:102FD000FF6108402168A1F8440029E700BF27E706
:102FE00070B504460CB9012070BD94F8910228B95F
:102FF000002084F89002204600F090F8032084F826
:10300000910200216171206803F0C1FD94E80F0076
:1030100003F06AFC20B1022084F891020120E3E76A
:103020000021206804F0BDFB20B1022084F8910249
:103030000120D9E700252AE0012105EB850204F1F2
:10304000100000EBC200417005EB850104F1100097
:1030500000F83150002105EB850200EBC200C17081
:1030600005EB850204F1100000EBC200016105EBE5
:10307000850204F1100000EBC200416105EB8502FE
:1030800004F1100000EBC2008161681CC5B2207918
:10309000A842D1DC00252AE0002105EB850204F5D9
:1030A000A87000EBC200417005EB850104F5A87023
:1030B00000F83150002105EB850200EBC200C17021
:1030C00005EB850204F5A87000EBC200016105EB79
:1030D000850204F5A87000EBC200416105EB850292
:1030E00004F5A87000EBC2008161681CC5B22079AC
:1030F000A842D1DC94E80F0003F03EFD20B102208D
:1031000084F8910201206FE700206073012084F8A9
:103110009102206803F02DFD002065E738B50446D4
:103120000D492068884215D100BF0C48C06940F4A1
:1031300000000A49C8610846C06900F40000009018
:1031400000BF00BF002211461420FFF749F91420E8
:10315000FFF736F938BD0000005C00400010024067
:1031600070B504460125A079022801D0FEF70EFDB6
:103170002946D4F8D40202F035FED4F8D40202F085
:10318000E7FD70BD10B50446D4F8D40202F00EFE7F
:1031900010BD10B50446D4F8D40202F012FE10BDE2
:1031A00070B504460D4600BF94F89002012801D185
:1031B000022070BD012084F8900200BF657329468B
:1031C000206804F0F1FA00BF002084F8900200BFEC
:1031D00000BFEEE710B5044604F52671D4F8D4021A
:1031E00002F017FE10BD10B5044600BF94F890021F
:1031F000012801D1022010BD012084F8900200BFF7
:10320000206804F094FA01212046FFF75DF9206858
:1032100003F0ACFC00BF002084F8900200BF00BFA8
:10322000E9E7000010B50446D4F8D40202F04AFEE3
:10323000A07A28B10348006840F006000149086000
:1032400010BD000010ED00E0F8B504460026002592
:10325000207800F0010000286BD000274348C069A7
:1032600000F0805070B900BF4048C06940F0805005
:103270003E49C8610846C06900F08050009000BF18
:1032800000BF01273A48006800F48070B0B93848A0
:10329000006840F4807036490860FEF747FE064635
:1032A00006E0FEF743FE801B642801D90320F8BD29
:1032B0002F48006800F480700028F2D02B48006A84
:1032C00000F440752DB3A08800F44070A84220D0CF
:1032D0002648006A20F44075012026490860002035
:1032E00008602248056205F0010090B1FEF71EFE5D
:1032F000064608E0FEF71AFE801B41F2883188423C
:1033000001D90320D3E71948006A00F00200002821
:10331000F0D01648006A20F44070616808431349F1
:103320000862012F04D10846C06920F08050C861AE
:1033300000BF207800F00200022807D10B48406847
:1033400020F44040A168084308494860207800F014
:103350001000102807D10548406820F48000E1687B
:103360000843024948600020A1E700000010024025
:10337000007000404004424270B504460D460CB94E
:10338000012070BD5A48006800F00700A8420ED224
:103390005748006820F00700284355490860084650
:1033A000006800F00700A84201D00120E9E720787A
:1033B00000F0020002281DD1207800F0040004284B
:1033C00005D14C48406840F4E0604A4948602078A4
:1033D00000F00800082805D14648406840F46050D5
:1033E000444948604348406820F0F000A168084321
:1033F00040494860207800F0010078B360680128F7
:1034000006D13C48006800F4003090B90120B8E7CC
:103410006068022806D13748006800F0007040B9A3
:103420000120AEE73348006800F0020008B901202F
:10343000A7E73048406820F00300616808432D4941
:103440004860FEF773FD064609E0FEF76FFD801B3E
:1034500041F28831884202D9032092E707E02548EB
:10346000406800F00C006168B0EB810FEDD120489E
:10347000006800F00700A8420ED91D48006820F03F
:10348000070028431A4908600846006800F0070052
:10349000A84201D0012074E7207800F0040004283D
:1034A00007D11448406820F4E060E16808431149FE
:1034B0004860207800F00800082808D10D484068CE
:1034C00020F46050216940EAC1000A49486000F0D8
:1034D0002FF808494968C1F30311074A515CC840F5
:1034E0000649086006480068FEF71AFF002048E712
:1034F00000200240001002402A7A00085C000020F0
:103500005400002001480068704700005C00002063
:1035100000B5FFF7F7FF04494968C1F30221034AE8
:10352000515CC84000BD0000001002403A7A00081B
:1035300070B500210022002400230020134D69688B
:1035400001F00C05F5B1042D02D0082D19D101E0D0
:103550000F4819E00F4DC1F38346AB5D01F4803590
:1035600055B10A4D6D68C5F340450B4E725D084D6F
:103570005D43B5FBF2F402E0084D03FB05F4204681
:1035800002E000BF024800BF00BF70BD0010024053
:1035900000127A00187A0008287A000800093D0015
:1035A000F8B504460CB90120F8BD207800F0010000
:1035B000002878D0F848406800F00C0004280CD0AF
:1035C000F548406800F00C00082811D1F248406826
:1035D00000F48030B0F5803F0AD1EF48006800F475
:1035E000003000285FD0606800285CD10120DBE754
:1035F00000BF6068B0F5803F06D1E748006840F43E
:103600008030E549086028E0606858B9E248006801
:1036100020F48030E04908600846006820F48020EB
:1036200008601AE06068B0F5A02F0BD1DA48006896
:1036300040F48020D84908600846006840F4803093
:1036400008600AE0D448006820F48030D24908605D
:103650000846006820F48020086000BF606888B1D8
:10366000FEF764FC054606E0FEF760FC401B64289C
:1036700001D9032098E7C848006800F4003000280A
:10368000F2D010E0FEF752FC054606E0FEF74EFCD5
:10369000401B642801D9032086E7BF48006800F476
:1036A00000300028F2D1207800F00200022857D123
:1036B000B948406800F00C0050B1B748406800F0CD
:1036C0000C00082818D1B448406800F4803098B93C
:1036D000B148006800F0020020B12069012801D043
:1036E000012061E7AC48006820F0F800616940EA19
:1036F000C100A949086033E02069E8B10120A74969
:103700000860FEF713FC054606E0FEF70FFC401BC1
:10371000022801D9032047E79F48006800F0020013
:103720000028F2D09C48006820F0F800616940EA67
:10373000C1009949086013E0002098490860FEF72D
:10374000F5FB054606E0FEF7F1FB401B022801D918
:10375000032029E79048006800F002000028F2D119
:10376000207800F0080008282DD1A069B8B1012008
:103770008B490860FEF7DAFB054606E0FEF7D6FB4C
:10378000401B022801D903200EE78348406A00F05D
:1037900002000028F2D0012001F000FC13E000201C
:1037A0007F490860FEF7C2FB054606E0FEF7BEFB58
:1037B000401B022801D90320F6E67748406A00F052
:1037C00002000028F2D1207800F00400042873D110
:1037D00000277148C06900F0805070B900BF6E4882
:1037E000C06940F080506C49C8610846C06900F06B
:1037F0008050009000BF00BF01276A48006800F4B5
:103800008070B0B96748006840F48070654908600E
:10381000FEF78CFB054606E0FEF788FB401B64289C
:1038200001D90320C0E65F48006800F480700028DA
:10383000F2D000BFE068012806D15748006A40F086
:1038400001005549086227E0E06858B95248006A0B
:1038500020F00100504908620846006A20F0040088
:10386000086219E0E06805280BD14B48006A40F077
:103870000400494908620846006A40F001000862F5
:103880000AE04548006A20F0010043490862084602
:10389000006A20F00400086200BFE068A0B1FEF7F3
:1038A00045FB054609E0FEF741FB401B41F288312C
:1038B000884202D9032077E622E03748006A00F008
:1038C00002000028EFD012E0FEF730FB054608E0CA
:1038D000FEF72CFB401B41F28831884201D90320BE
:1038E00062E62D48006A00F002000028F0D1012FA6
:1038F00005D12948C06920F080502749C86100BF20
:10390000E069C8B32448406800F00C00082860D083
:10391000E069022848D1002020490866FEF706FB2E
:10392000054606E0FEF702FB401B022801D90320F2
:103930003AE61948006800F000700028F2D1206AC9
:10394000B0F5803F07D11448406820F40030A168EA
:10395000084311494860D4E9080108430E49496801
:1039600021F4741108430C49486001200B49086692
:10397000FEF7DCFA054607E03DE0FEF7D7FA401B0C
:10398000022801D903200FE60348006800F0007008
:103990000028F2D02FE00000001002400000424258
:1039A0008004424200700040002014490866FEF77F
:1039B000BDFA054606E0FEF7B9FA401B022801D918
:1039C0000320F1E50E48006800F000700028F2D1F5
:1039D00011E0E069012800D1E6E50948466806F4EF
:1039E0008031206A814204D106F47011606A8142FC
:1039F00001D00120D8E50020D6E5000000004242B9
:103A00000010024010B504460CB9012010BD606AD8
:103A100038B96068B0F5827F00D105E00021E1612E
:103A200002E00021216161610021A16294F851004E
:103A300028B9002084F85000204600F043F8022006
:103A400084F851002068006820F040002168086078
:103A5000A08800F48270218901F404410843A189FF
:103A600001F400610843217C01F002010843217D3B
:103A700001F001010843218B01F400710843217F0B
:103A800001F0380108432021095D01F0800108435D
:103A9000218D01F400510843216808600421A069C8
:103AA00001EA1040216848602068C06920F4006085
:103AB0002168C86100206065012084F85100002061
:103AC000A4E7000010B586B00446002002900390E1
:103AD000049005901B492068884230D100BF1A48E5
:103AE000C06940F480401849C8610846C06900F4C4
:103AF0008040019000BF00BF00BF0846806940F0D1
:103B0000080088610846806900F00800019000BF45
:103B100000BF4FF420400290022003900120059046
:103B200002A90A48FEF764F84FF480400290002092
:103B300003900120049002A90448FEF759F806B04A
:103B400010BD00000038004000100240000C014091
:103B50002DE9F8430446884616461D4694F8510060
:103B6000012802D00220BDE8F8836068B0F5827FAA
:103B70000CD1A06850B9042084F851003346424665
:103B800041462046009500F083F9ECE7FEF7CEF9B8
:103B90000746B8F1000F00D00EB90120E3E700BFDF
:103BA00094F85000012801D10220DCE7012084F8BC
:103BB000500000BF042084F8510000206065C4F864
:103BC0003880A687E6872063A086E086206460644C
:103BD000A068B0F5004F0BD12068006820F04000CD
:103BE000216808602068006820F48040216808602F
:103BF0002068006800F04000402805D02068006878
:103C000040F0400021680860E06830BB21E0206897
:103C1000806800F0010050B12068007BA16B087043
:103C2000A06B401CA063E08F401EE08711E0FEF710
:103C30007DF9C01BA84201D3681C00B94DB9012011
:103C400084F8510000BF002084F8500000BF03201A
:103C500089E7E08F0028DAD125E021E0206880683C
:103C600000F0010050B12068C068A16B0880A06B13
:103C7000801CA063E08F401EE08711E0FEF756F93C
:103C8000C01BA84201D3681C00B94DB9012084F8BB
:103C9000510000BF002084F8500000BF032062E7FD
:103CA000E08F0028DAD13A462946204601F0DAF9B9
:103CB00008B120206065012084F8510000BF002079
:103CC00084F8500000BF606D08B101204BE7002070
:103CD00049E72DE9F84304460F4616461D46FEF710
:103CE00025F98046B14694F85100012802D00220FF
:103CF000BDE8F88307B10EB90120F9E700BF94F8D9
:103D00005000012801D10220F2E7012084F8500080
:103D100000BF032084F85100002060652763A68659
:103D2000E686A063A087E08760642064A068B0F5A1
:103D3000004F0BD12068006820F040002168086027
:103D40002068006840F480402168086020680068AE
:103D500000F04000402805D02068006840F0400096
:103D600021680860E068B0F5006F37D1606810B175
:103D7000B9F1010F09D1206B00882168C860206B60
:103D8000801C2063E08E401EE08623E0206880686F
:103D900000F0020002280AD1206B00882168C86068
:103DA000206B801C2063E08E401EE08612E0FEF750
:103DB000BDF8A0EB0800A84201D3681C00B94DB9BA
:103DC000012084F8510000BF002084F8500000BF9B
:103DD00003208DE7E08E0028D8D136E0606810B16E
:103DE000B9F1010F09D1206B007821680873206BAD
:103DF000401C2063E08E401EE08623E0206880683F
:103E000000F0020002280AD1206B007821680873B4
:103E1000206B401C2063E08E401EE08612E0FEF71F
:103E200085F8A0EB0800A84201D3681C00B94DB981
:103E3000012084F8510000BF002084F8500000BF2A
:103E4000032055E7E08E0028D8D142462946204677
:103E500001F044F908B120206065A06850B900BFA6
:103E6000002000902068C068009020688068009062
:103E700000BF00BF012084F8510000BF002084F87B
:103E8000500000BF606D08B1012031E700202FE72E
:103E90002DE9FE4F04460F4690461D460C9E01201C
:103EA0000190FEF743F8814694F851B060680290A3
:103EB000AA46BBF1010F0BD00298B0F5827F04D166
:103EC000A06810B9BBF1040F02D00220BDE8FE8F3C
:103ED0001FB1B8F1000F00D00DB90120F6E700BF07
:103EE00094F85000012801D10220EFE7012084F866
:103EF000500000BF94F85100042802D0052084F837
:103F0000510000206065C4F83880E587A5872763E5
:103F1000E586A586206460642068006800F04000A3
:103F2000402805D02068006840F040002168086003
:103F3000E068B0F5006F52D1606810B1BAF1010FBE
:103F400009D1206B00882168C860206B801C206329
:103F5000E08E401EE0863BE02068806800F00200B2
:103F6000022810D1E08E70B1019801280BD1206B8E
:103F700000882168C860206B801C2063E08E401E92
:103F8000E086002001902068806800F0010068B1A0
:103F9000E08F58B12068C068A16B0880A06B801CBE
:103FA000A063E08F401EE08701200190FDF7BEFF77
:103FB000A0EB0900B0420BD3701C48B1012084F87B
:103FC000510000BF002084F8500000BF03207DE7AF
:103FD000E08E0028C0D1E08F0028BDD152E060689B
:103FE00010B1BAF1010F09D1206B00782168087374
:103FF000206B401C2063E08E401EE0863CE0206881
:10400000806800F00200022810D1E08E70B10198A3
:1040100001280BD1206B007821680873206B401CAD
:104020002063E08E401EE0860020019020688068BA
:1040300000F0010068B1E08F58B12068C068A16B42
:104040000870A06B401CA063E08F401EE087012039
:104050000190FDF76BFFA0EB0900B04201D3701C8B
:1040600000B94EB9012084F8510000BF002084F847
:10407000500000BF032029E7E08E0028BFD1E08F69
:104080000028BCD14A463146204601F027F840B10D
:104090002020606500BF002084F8500000BF012090
:1040A00014E7A06850B900BF002000902068C068E5
:1040B000009020688068009000BF00BF012084F855
:1040C000510000BF002084F8500000BF606D08B1AF
:1040D0000120FBE60020F9E670B504462546681E7F
:1040E000B0F1807F01D301200FE0681E4FF0E02186
:1040F00048610F214FF0FF3003F0E4FB00204FF048
:10410000E021886107200861002070BD00BFFEE744
:10411000014608684069C0F38020B0B16FF4806048
:104120000A68506100200863202081F83D000020CB
:1041300081F83E00086C40F00400086400BF0020D5
:1041400081F83C0000BF012070470020FCE7000020
:104150002DE9F8430446884615469946DDE9086787
:104160002068006840F480702168086033460022AF
:104170004FF001112046009700F08DF860B12068E3
:10418000006800F48070B0F5807F02D14FF40070B9
:1041900020640320BDE8F88308F0FE002168086170
:1041A0003B4632462149204600F0D4F808B10120B0
:1041B000F0E700BF00200090206840690090206870
:1041C0008069009000BF00BF3A463146204600F0AB
:1041D0003EF950B1206C042805D12068006840F4F5
:1041E0000070216808600120D4E7B9F1010F03D104
:1041F000E8B22168086117E0C5F30720216808616B
:104200003A463146204600F022F950B1206C04288D
:1042100005D12068006840F4007021680860012022
:10422000B8E7E8B2216808610020B3E702000100A6
:1042300070B504460D46164625E02046FFF768FF98
:1042400008B1012070BD681CE8B1FDF76FFE801B4E
:10425000A84200D8BDB920684069C0F3800090B979
:1042600000202063202084F83D00002084F83E00D8
:10427000206C40F02000206400BF002084F83C0047
:1042800000BF0120DEE720684069C0F380000028FD
:10429000D3D00020D6E72DE9F04104460D4617465D
:1042A0001E46DDF8188038E0701CA8B3FDF73EFE0E
:1042B000A0EB0800B04200D876BBC5F30740012848
:1042C0000AD120684069A9B20840A9B2884201D148
:1042D00001200BE0002009E020688069A9B20840B5
:1042E000A9B2884201D1012000E00020B84214D1D7
:1042F00000202063202084F83D00002084F83E0048
:10430000206C40F02000206400BF002084F83C00B6
:1043100000BF0120BDE8F081FFE7C5F30740012899
:104320000AD120684069A9B20840A9B2884201D1E7
:1043300001200BE0002009E020688069A9B2084054
:10434000A9B2884201D1012000E00020B842ABD0E0
:104350000020DFE72DE9F04104460D4616461F46D2
:1043600058E020684069C0F38020E8B12068006808
:1043700040F40070216808606FF480602168486133
:1043800000202063202084F83D00002084F83E00B7
:10439000206C40F00400206400BF002084F83C0042
:1043A00000BF0120BDE8F081701C90B3FDF7BEFD99
:1043B000C01BB04200D866BBC5F3074001280AD134
:1043C00020684069A9B20840A9B2884201D1012001
:1043D0000BE0002009E020688069A9B20840A9B27A
:1043E000884201D1012000E0002090B90020206324
:1043F000202084F83D00002084F83E00206C40F02E
:104400002000206400BF002084F83C0000BF012091
:10441000C8E7FFE7C5F3074001280AD120684069D3
:10442000A9B20840A9B2884201D101200BE00020C6
:1044300009E020688069A9B20840A9B2884201D188
:10444000012000E0002000288BD00020AAE770B5F2
:1044500004460D46164625E02046FFF759FE08B1F2
:10446000012070BD681CE8B1FDF760FD801BA8420B
:1044700000D8BDB920684069C0F3C01090B90020D1
:104480002063202084F83D00002084F83E00206C4A
:1044900040F02000206400BF002084F83C0000BFF2
:1044A0000120DEE720684069C0F3C0100028D3D0A7
:1044B0000020D6E730B50B46002100BF16E00A24E5
:1044C000B4EB107F05D9302404EB107403F81140CD
:1044D00005E0412404EB10740A3C03F8114000018C
:1044E00000254C00641C1D554C1CE1B29142E6DBDA
:1044F00030BD000000B585B000200190029003900F
:10450000049000BF2348806940F020002149886161
:104510000846806900F02000009000BF00BF00BF87
:104520000846806940F0080088610846806900F00C
:104530000800009000BF00BF00BF0846806940F03F
:10454000040088610846806900F00400009000BF04
:1045500000BF01224FF440610F48FDF7E1FC4FF42A
:1045600040600190012002900020039001200490FF
:1045700001A90948FDF73CFB4FF480500190002051
:1045800002900120039001A90348FDF731FB05B01B
:1045900000BD000000100240000C014010B50B48A7
:1045A0000B4908600B484860002109488160C160E0
:1045B0004FF480410161002141618161C16101626B
:1045C000FDF7BAFC08B1FDF7E1FA10BD0054004058
:1045D00074010020A086010010B50E480E49086045
:1045E0004FF48270486000210B488160C160016116
:1045F00041614FF4007181611821C16100210162A4
:10460000416281620A21C162FFF7FCF908B1FDF73E
:10461000BDFA10BD00380040C801002010B50022CE
:104620000A490B4801F002FA08B1FDF7AFFA09494F
:10463000074801F07DFC08B1FDF7A8FA044801F035
:1046400041FD08B1FDF7A2FA10BD000000000020F6
:10465000200200206400002000BFFEE700BFFEE74C
:1046600010B5FFF7B9FF002003F0E0F8012003F0D8
:10467000EDF80A20FDF7A8FA05221449302003F0CE
:10468000BDF8052212492A2003F0B8F80F21202096
:1046900003F0ECF80121212003F0E8F800212520A7
:1046A00003F0E4F82021312003F0E0F8012122207A
:1046B00003F0DCF81A21242003F0D8F8FF21E220CF
:1046C00003F0D4F8012003F0B1F810BD6A01002016
:1046D0006F01002000200CE0002106E00022064BC4
:1046E00003EBC0135A544A1CD1B28029F6DB421C9A
:1046F000D0B20828F0DB7047D00900202DE9F04344
:1047000004460D4616461F467F2C01DDBDE8F083AA
:104710003F2D00DDFAE7A119802902DDC4F18001F7
:10472000CEB2E919402902DDC5F14001CFB22846D9
:1047300030E0234629E04FEAE07C00EB5C7C4FEA66
:10474000EC0CDFF85C8008EBCC1C1CF803C00246C4
:104750004FEAE07800EB58784FEAE808A0EBC80988
:104760004FF0010808FA09F82CEA080C01464FEA54
:10477000E07800EB58784FEAE808DFF8249009EB7E
:10478000C81808F803C0591CCBB2A1199942D2DC51
:10479000411CC8B2E9198142CBDC00BFB6E700007A
:1047A000D009002010B53220FDF70EFAAE2000F03F
:1047B00059F9D52000F056F9802000F053F9A820CF
:1047C00000F050F93F2000F04DF9D32000F04AF9F5
:1047D000002000F047F9402000F044F9A12000F04B
:1047E00041F9C82000F03EF9DA2000F03BF9122030
:1047F00000F038F9812000F035F97F2000F032F91F
:10480000D92000F02FF9F12000F02CF9DB2000F086
:1048100029F9302000F026F9A42000F023F9A62081
:1048200000F020F98D2000F01DF9142000F01AF995
:10483000AF2000F017F910BD0FB470B58AB005466F
:104840000E46144612A8019002A8019A1199FBF78E
:1048500031FD00200190234602AA3146284600F08F
:10486000D5F80AB070BC5DF814FB70B505460C466F
:1048700045F0B00000F0F6F8102141EA141000F005
:10488000F1F804F00F0000F0EDF870BDF8B5064641
:104890000F4614461D46082D0CD1A4F120000E49E8
:1048A00001EB00101023082239460090304600F03A
:1048B00017F80FE0062D0DD1A4F1200000EB400009
:1048C000064901EB40000823062239460090304695
:1048D00000F006F8F8BD0000427A000832800008B7
:1048E0002DE9F04707460C4690469946DDF820A092
:1048F0007F2F01DDBDE8F0873F2C00DDFAE74B4656
:10490000424621463846FFF7F9FE002570E00026B2
:1049100069E0B8197F2800DD67E0E11704EB517109
:1049200005EBE101072900DDE4E72046E21704EB8F
:10493000527205EBE202344B03EBC212BB19D25C9C
:104940002146E31704EB5373DB10A4EBC30305FB11
:10495000086C1AF80CC00CFA03FC42EA0C02E317CC
:1049600004EB537305EBE303DFF89CC00CEBC313BC
:1049700007EB060C03F80C20E11704EB517105EB73
:10498000E101491C072900DD2BE02046E21704EB7A
:10499000527205EBE202521C1B4B03EBC212BB1915
:1049A000D25C2146E31704EB5373DB10A4EBC30383
:1049B000C3F1080305FB086C1AF80CC04CFA03FCA1
:1049C00042EA0C02E31704EB537305EBE3035B1CB1
:1049D000DFF834C00CEBC31307EB060C03F80C2014
:1049E00000BF701CC6B2464593DB00BF681CC5B251
:1049F000A9F10100C11700EB5171012202EBE101A5
:104A0000A94284DC00BF75E7D00900202DE9F04100
:104A10000646884615461F46002409E02A5D04FB29
:104A20000761C8B23B464146FFF730FF601CC4B285
:104A3000285D0028F2D1BDE8F081000010B5002407
:104A40000BE000212046FFF710FF054901EBC410E1
:104A5000802100F019F8601CC4B2082CF1DB10BDF5
:104A6000D009002011B583B00024601E012103AAE3
:104A70000B46CDE900210290224678210148FDF73E
:104A800043FB1FBD74010020FEB504460D464026C1
:104A90004FF0FF30012332467821CDE900450290E6
:104AA0000148FDF731FBFEBD740100202DE9F05FE8
:104AB000054667E22868B0F844A00AF00F07002F07
:104AC0007ED10AF0100098BB00BF2968098848F61B
:104AD0000F7201EA020040F400412A68118000BF11
:104AE00005F110042868B0F85010207801EBC000E0
:104AF000801C296801F5806131F81000C0F30900BD
:104B0000E061E16960690844606100212846FDF7C1
:104B1000DCFC687B0028CCD0A0690028C9D1687B68
:104B200040F080002968A1F84C000020687329E259
:104B3000FFE705F5A8742868068806F4006030B31E
:104B40002868B0F85010207801EBC000801D29685B
:104B500001F5806131F81000C0F30900E061A18B1C
:104B60008BB2E28805F52671286802F0F5FD00BFDA
:104B70002968098840F68F7201EA020040F080013E
:104B80002A68118000BF2846FEF724FBFAE106F4EC
:104B9000004000288DD000BF2968098840F68F7238
:104BA00001EA020040F080012A68118000BF2868F5
:104BB000B0F85010207801EBC000801D296800E09B
:104BC00076E001F5806131F81000C0F30900E06182
:104BD000E06990B1606980B1B4F81CC01FFA8CF331
:104BE000E2886169286802F0B7FDE16960690844FC
:104BF000606100212846FDF778FC2868068806F4E5
:104C00000060002893D106F44050B0F5405F8ED08C
:104C100000BF2A682968B1F850100A4402F20C411A
:104C2000084600BF0388C3F30903038023693E2BB2
:104C300012D900BF23695909237C03F01F0303B96C
:104C4000491E03884FF4004C4CEA812C1FFA8CFC5F
:104C500043EA0C03038017E0236923B9038843F474
:104C60000043038010E000BF23695908237C03F050
:104C7000010303B1491C03884FF6FF7C0CEA812C29
:104C800043EA0C03038000BF00BF00BF00BF2968D8
:104C900009884BF68F7201EA020080F4805080F49C
:104CA000005040F4004141F080012A68118069E120
:104CB0007900286830F8116006F4004000286FD0B1
:104CC00000BF7A00296831F8121040F68F7201EAAD
:104CD000020040F080017B002A6822F8131000BF18
:104CE00007EB870105F5A87000EBC104207BB8B97C
:104CF0002868B0F85010207801EBC000801D2968AA
:104D000001F5806131F81000C0F30908B8F1000F17
:104D10005ED0E28861694346286802F01DFD57E0D5
:104D2000E078022806D1324621462846FDF760FC8D
:104D300080464DE000BF00BF22785200296831F85C
:104D4000121048F68F7201EA020040F4004141F06F
:104D5000C00123785B002A6822F8131000BF00BF4F
:104D600021784900286830F8110000F48040C0B173
:104D70002868B0F85010207801EBC000801C29682A
:104D800001F5806131F81000C0F30908B8F1000F97
:104D90001ED0228961694346286802F0DDFC17E0D5
:104DA0002AE02868B0F85010207801EBC000801D80
:104DB000296801F5806131F81000C0F30908B8F1E5
:104DC000000F05D0628961694346286802F0C4FC7F
:104DD000E0694044E061606940446061A06910B1ED
:104DE0002069404504D921782846FDF77EFB03E081
:104DF0002146286801F073FF06F08000002876D075
:104E000007EB870105F1100000EBC10400BF7A0039
:104E1000296831F8121048F60F7201EA020040F4D6
:104E200000417B002A6822F8131000BFE0780128B7
:104E300076D10020A061207B00286BD006F04000D6
:104E400080B300BF6078C0B900BF29682A68B2F893
:104E5000502011442278022303EBC20201F5806343
:104E600003EB420000BF0288C2F3090202800288FD
:104E700042F40042028000BF13E06078012810D1A4
:104E800000BF28682A68B2F8502010442278022314
:104E900003EBC20200F5806303EB420100220A80AB
:104EA00000BF37E0FFE700BF2968607800BB00BFA4
:104EB0002B68D5F800C0BCF850C0634494F800C01B
:104EC0004FF0060B0BEBCC0C03F5806B0BEB4C009F
:104ED00000BFB0F800C0CCF3090CA0F800C0B0F8D7
:104EE00000C04CF4004CA0F800C000BF11E049E045
:104EF000607801280DD12868B0F85000014420786E
:104F0000062303EBC00001F5806303EB40020020A1
:104F1000108000BF21782846FDF7D7FA32E0FFE77E
:104F200006F4807048BB2868B0F85010207801EB78
:104F3000C000801C296801F5806131F81000C0F3C1
:104F40000909A069484504D9A069A0EB0900A0613E
:104F500001E00020A061A06920B921782846FDF772
:104F6000B4FA0FE0606948446061E0694844E06178
:104F70002146286801F0B3FE04E032462146284667
:104F8000FDF7E2FB2868B0F8440000F40040002878
:104F90007FF490ADBDE8F09F7047000008B5084968
:104FA0000968C9084FF47A72B1FBF2F141430091EC
:104FB00000BF00BF00994A1E00920029F9D108BD28
:104FC0005C00002070B504460D461646002002F035
:104FD0003DFC204600F0A4F84FF47A73324629468F
:104FE0000348FEF7B5FD012002F030FC70BD000063
:104FF000C801002010B54FF480510248FCF788FF2B
:1050000010BD0000000C014070B50446002002F005
:105010001DFC204600F084F8FF2000F081F80546D2
:10502000012002F013FC284670BD70B5054607202C
:10503000FFF7EAFF064606F0400090B1202229461D
:105040006120FFF7BFFFFF21E22002F00FFC314695
:10505000272002F00BFC002401E0601C84B20A2C23
:10506000FBDB70BDF8B504460E4615466068B0F52A
:10507000827F0DD1A068B0F5004F03D0A068B0F5D5
:10508000806F05D12068006820F04000216808602A
:105090006068B0F5827F11D1A068B0F5806F0DD146
:1050A0003346002201212046009500F04BF898B1CC
:1050B000606D40F0200060650320F8BD334600229B
:1050C00080212046009500F03DF828B1606D40F049
:1050D000200060650320F0E70020EEE7F8B5044605
:1050E0000E4615463346012202212046009500F067
:1050F00029F828B1606D40F0200060650320F8BDFC
:105100003346002280212046009500F01BF828B18C
:10511000606D40F0200060650320F0E70020EEE7BE
:1051200001B582B0002001904FF47A70012301AAEA
:1051300002A900900248FEF7ABFE9DF804000EBDE8
:10514000C80100202DE9F84F04460D4690461E4642
:10515000DDF82890FCF7EAFEA0EB0900371AFCF70F
:10516000E5FE82462C480068C0F3CB3078430090BF
:1051700045E0701C002842D0FCF7D8FEA0EB0A00E6
:10518000B84200D2A7BB2068406820F0E000216848
:1051900048606068B0F5827F0DD1A068B0F5004F1F
:1051A00003D0A068B0F5806F05D12068006820F0BA
:1051B000400021680860A06AB0F5005F0DD100BF13
:1051C0002068006820F400502168086020680068AA
:1051D00040F400502168086000BF012084F85100AD
:1051E00000BF002084F8500000BF0320BDE8F88F06
:1051F000FFE7009800B900270098401E0090206843
:1052000080682840A84201D1012000E000204045EC
:10521000AFD10020EAE700005C000020704710B525
:10522000FDF75EF810BD00B593B0282109A8FBF783
:1052300053F8142104A8FBF74FF8002000900190C8
:10524000029003900120099000040A9000200B9026
:1052500001200D9002201090C10311914FF4E01134
:10526000129109A8FEF79CF908B1FCF78FFC0F20FA
:10527000049002200590002006904FF48060079073
:1052800000200890022104A8FEF776F808B1FCF788
:105290007DFC10200090002003906846FDF7D4FFAD
:1052A00008B1FCF773FC13B000BD704770B504463D
:1052B0000D46D4F8B40229464268204690470020A3
:1052C00070BD70B504460D4694F89C02012804D0C8
:1052D000022803D003280CD101E000BF00BF68887A
:1052E000012805D10020C4F8A402204600F04AF8A5
:1052F00004E02946204600F01BF800BF00BF70BD47
:1053000070B506460C4615462B462246002130460F
:1053100000F006FD002070BD70B506460C4615462F
:105320002B4622460021304600F0D6FD002070BDFD
:1053300070B504460D468021204600F0A1FD0021F5
:10534000204600F09DFD70BD10B504460520C4F850
:10535000940200231A461946204600F0E1FC002082
:1053600010BD70B504460E4615460220C4F89402DE
:10537000E56125622B4632460021204600F0ACFD57
:10538000002070BD10B504460420C4F89402002328
:105390001A461946204600F09FFD002010BD00006F
:1053A00070B505460C462DB92246064906A000F008
:1053B000DBF904E02246034903A000F0D5F90148D7
:1053C00070BD0000E404002048494420436F6E662D
:1053D00069670000024612200880014870470000FB
:1053E0001C00002070B505460C462DB92246064922
:1053F00006A000F0B9F904E02246034903A000F03A
:10540000B3F9014870BD0000E4040020484944207D
:10541000496E74657266616365000000024604208F
:1054200008800148704700003000002070B5054634
:105430000C462246024903A000F096F9004870BDD0
:10544000E404002053544D6963726F656C656374A6
:10545000726F6E696373000070B505460C462DB916
:105460002246064906A000F07FF904E022460349DF
:1054700003A000F079F9014870BD0000E4040020A9
:1054800053544D33322048756D616E20696E7465DA
:10549000726661636500000070B505460C461A200F
:1054A0002080FCF777FB014870BD0000340000202D
:1054B00070B504460D46E888012804D029462046E8
:1054C000FFF736FF1EE094F89C02012804D0022862
:1054D00003D0032810D109E000BF0020A060012202
:1054E00004F108012046FFF73CFF0AE00122211DDC
:1054F0002046FFF736FF04E029462046FFF718FF55
:1055000000BF00BF70BDF8B504460E4600200090F5
:105510000027002570880012082875D2DFE800F007
:10552000C7040C20C7C7A5B5207CD4F8B0120A6800
:10553000694690470746C1E0207C40B9D4F8B402E0
:10554000816A6846884707460220787007E0D4F8E9
:10555000B402C16A68468847074602207870ADE009
:10556000B078062878D2DFE800F00316293C5063B3
:10557000D4F8B002406838B1207CD4F8B0124A6840
:1055800069469047074605E031462046FFF7D0FEC2
:10559000681CC5B267E0D4F8B002806838B1207CDE
:1055A000D4F8B0128A6869469047074605E031464C
:1055B0002046FFF7BDFE681CC5B254E0D4F8B00227
:1055C000C06838B1207CD4F8B012CA6869469047E8
:1055D000074605E031462046FFF7AAFE681CC5B223
:1055E00041E0D4F8B002006938B1207CD4F8B012A0
:1055F0000A6969469047074605E031462046FFF7AD
:1056000097FE681CC5B22EE051E0D4F8B0024069A4
:1056100038B1207CD4F8B0124A69694690470746F1
:1056200005E031462046FFF783FE681CC5B21AE04C
:10563000D4F8B002806940B1207CD4F8B0128A69F5
:1056400069469047074606E006E031462046FFF7E8
:105650006FFE681CC5B206E031462046FFF768FEC3
:10566000681CC5B200BF00BF28E0207C30B9D4F868
:10567000B402416B68468847074605E0314620463C
:10568000FFF756FE681CC5B218E0207C40B9D4F87C
:10569000B402016B6846884707460720787005E02A
:1056A00031462046FFF744FE681CC5B206E031468D
:1056B0002046FFF73DFE681CC5B200BF00BF05B124
:1056C000F8BDBDF8000088B1F08878B1F088BDF869
:1056D0000010884202DDBDF8000000E0F088009074
:1056E000BDF8002039462046FFF73BFEF08810B990
:1056F0002046FFF747FE00BFE2E70146002002E038
:10570000421CD0B2491C0A78002AF9D1704770B502
:1057100004460D4694F89C02012804D0022803D0C8
:1057200003281AD101E000BF00BFE888022804D096
:1057300029462046FFF7FCFD14E00120E060D4F884
:10574000A40218B1E06840F00200E060022204F117
:105750000C012046FFF705FE04E029462046FFF72E
:10576000E7FD00BF00BF70BD2DE9F04104460D46C6
:1057700017460026FCB12046FFF7BFFF022101EBD0
:10578000400038803A783046711CCEB22A54032249
:105790003046711CCEB22A540AE014F8012B304670
:1057A000711CCEB22A5400223046711CCEB22A544B
:1057B00020780028F1D1BDE8F0810146002031B108
:1057C000012906D0022906D0032908D105E00020CE
:1057D00007E0022005E0012003E0022001E00220B2
:1057E00000BF00BF704702460020D2F8B8321873DD
:1057F000704770B504460D468121204600F042F9FD
:105800000021E162D4F8B80230B1D4F8B80200F057
:105810000CFE0020C4F8B802002070BD01460A202A
:105820000880014870470000140100200146222032
:1058300008800148704700009C000020014622209B
:105840000880014870470000C00000200146222067
:105850000880014870470000E400002070B504464D
:105860000D46042303228121204600F041FA012144
:10587000E162102000F0DAFDC4F8B802D4F8B802F2
:1058800008B9022070BD0020D4F8B812087300BF18
:10589000F8E72DE9F04104460D461646D4F8B872F3
:1058A00094F89C02032809D1387B38B90120387359
:1058B00033462A468121204600F00EFB0020BDE839
:1058C000F08100002DE9F84306460C46D6F8B852A0
:1058D0000027B846002000908146207800F0600044
:1058E00030B3202874D16078022812D0032806D063
:1058F0000A280AD00B2812D1A078286016E00122CD
:1059000029463046FFF72DFD10E0608800126860E0
:105910000CE00122291D3046FFF723FD06E0214659
:105920003046FFF705FD4FF0020900BF00BF75E0EC
:10593000607830B1062815D00A283ED00B285DD1FA
:105940004EE096F89C02032805D1022269463046B3
:10595000FFF707FD05E021463046FFF7E9FC4FF071
:10596000020952E060882221B1EB202F09D1E088A2
:105970004A2801D94A2000E0E0880746DFF8A480E1
:1059800015E060882121B1EB202F09D1DFF8988044
:10599000E088092801D9092000E0E088074606E0F0
:1059A00021463046FFF7C4FC4FF002092DE03A468D
:1059B00041463046FFF7D5FC27E096F89C020328C5
:1059C00007D1012205F108013046FFF7CAFC06E0C5
:1059D0001DE021463046FFF7ABFC4FF0020914E012
:1059E00096F89C02032802D1A078A86005E0214621
:1059F0003046FFF79DFC4FF0020906E02146304695
:105A0000FFF796FC4FF0020900BF00BF06E02146F9
:105A10003046FFF78DFC4FF0020900BF00BF48463B
:105A2000BDE8F883200100200801002070B504467D
:105A30000D4616460CB9022070BDD4F8B40210B160
:105A40000020C4F8B4020DB1C4F8B052012084F8AB
:105A50009C022670204600F0FBF80020ECE72DE9C0
:105A6000F04104460D46002600272946D4F8C0021E
:105A7000FCF780FD06463046FFF79FFE0746384696
:105A8000BDE8F0812DE9F04104460D4600260027CF
:105A90002946D4F8C002FCF738FD06463046FFF729
:105AA0008CFE07463846BDE8F0812DE9F0410446FA
:105AB0000E461746002E64D104F11405D4F8940262
:105AC000022848D1D5E90301884210D9D5E903015C
:105AD000401AE860A88982B239462046FFF71CFCCC
